:100000000C9420030C94540D0C942D0D0C94480367
:100010000C9448030C9448030C9448030C94480334
:100020000C9448030C9448030C9448030C94480324
:100030000C9448030C9448030C9448030C94480314
:100040000C94E30C0C9448030C9448030C94480360
:100050000C9448030C9448030C9448030C944803F4
:100060000C94120B0C944803206677302E303069C4
:1000700000312E3030003663682053434152542003
:100080004D55580056614465526574726F210041A8
:100090007661696C61626C6520696E707574733A23
:1000A00000434F4D504F5349544500524742004F73
:1000B0007574707574206D6F64653A004E2F410041
:1000C00041637469766520696E7075743A002036F4
:1000D0002D6368616E6E656C205343415254204D10
:1000E0005558200000000000240027002A000000CE
:1000F0000000250028002B0000000000230026003F
:10010000290004040404040404040202020202029A
:1001100003030303030301020408102040800102CB
:10012000040810200102040810200000000800024A
:1001300001000003040700000000000000000000B0
:100140000000003E5B4F5B3E3E6B4F6B3E1C3E7CB7
:100150003E1C183C7E3C181C577D571C1C5E7F5E65
:100160001C00183C1800FFE7C3E7FF001824180024
:10017000FFE7DBE7FF30483A060E262979292640BB
:100180007F050507407F05253F5A3CE73C5A7F3EE7
:100190001C1C08081C1C3E7F14227F22145F5F0079
:1001A0005F5F06097F017F006689956A6060606015
:1001B0006094A2FFA29408047E040810207E201000
:1001C00008082A1C08081C2A08081E101010100C09
:1001D0001E0C1E0C30383E3830060E3E0E06000057
:1001E00000000000005F00000007000700147F14FB
:1001F0007F14242A7F2A122313086462364956206A
:10020000500008070300001C2241000041221C008E
:100210002A1C7F1C2A08083E08080080703000084D
:1002200008080808000060600020100804023E5121
:1002300049453E00427F40007249494946214149B3
:100240004D331814127F1027454545393C4A49491A
:100250003141211109073649494936464949291E84
:100260000000140000004034000000081422411473
:1002700014141414004122140802015909063E41C5
:100280005D594E7C1211127C7F494949363E4141ED
:1002900041227F4141413E7F494949417F09090946
:1002A000013E414151737F0808087F00417F4100B2
:1002B0002040413F017F081422417F404040407F61
:1002C000021C027F7F0408107F3E4141413E7F09AE
:1002D0000909063E4151215E7F09192946264949EF
:1002E000493203017F01033F4040403F1F2040202F
:1002F0001F3F4038403F631408146303047804032D
:100300006159494D43007F414141020408102000DA
:100310004141417F0402010204404040404000034B
:1003200007080020545478407F2844443838444417
:100330004428384444287F385454541800087E090F
:100340000218A4A49C787F0804047800447D40002F
:100350002040403D007F1028440000417F40007C49
:10036000047804787C080404783844444438FC1841
:1003700024241818242418FC7C0804040848545425
:10038000542404043F44243C4040207C1C20402052
:100390001C3C4030403C44281028444C9090907CB9
:1003A0004464544C440008364100000077000000CB
:1003B0004136080002010204023C2623263C1EA10D
:1003C000A161123A4040207A38545455592155556C
:1003D000794122545478422155547840205455791B
:1003E000400C1E52721239555555593954545459AE
:1003F00039555454580000457C410002457D420067
:1004000001457C407D1211127DF0282528F07C5496
:100410005545002054547C547C0A097F493249498F
:1004200049323A4444443A324A4848303A414121F8
:100430007A3A42402078009DA0A07D3D4242423D54
:100440003D4040403D3C24FF2424487E4943662BE8
:100450002FFC2F2BFF0929F620C0887E090320548A
:100460005479410000447D413048484A3238404088
:10047000227A007A0A0A727D0D19317D2629292FE8
:1004800028262929292630484D4020380808080800
:1004900008080808382F10C8ACBA2F102834FA0002
:1004A000007B000008142A142222142A1408550084
:1004B000550055AA55AA55AAFF55FF55FF00000043
:1004C000FF00101010FF00141414FF001010FF00A4
:1004D000FF1010F010F0141414FC001414F700FFB7
:1004E0000000FF00FF1414F404FC141417101F1074
:1004F000101F101F1414141F00101010F000000023
:10050000001F101010101F10101010F0100000002D
:10051000FF101010101010101010FF10000000FF3E
:10052000140000FF00FF00001F10170000FC04F47F
:1005300014141710171414F404F40000FF00F71437
:10054000141414141414F700F714141417141010BE
:100550001F101F141414F4141010F010F000001FDA
:10056000101F0000001F14000000FC140000F01019
:10057000F01010FF10FF141414FF141010101F00BF
:10058000000000F010FFFFFFFFFFF0F0F0F0F0FFC1
:10059000FFFF0000000000FFFF0F0F0F0F0F384498
:1005A000443844FC4A4A4A347E02020606027E026D
:1005B0007E0263554941633844443C04407E201E1A
:1005C0002006027E020299A5E7A5991C2A492A1C49
:1005D0004C7201724C304A4D4D303048784830BC36
:1005E000625A463D3E494949007E0101017E2A2A60
:1005F0002A2A2A44445F444440514A444040444AE1
:1006000051400000FF0103E080FF000008086B6B11
:10061000083612362436060F090F06000018180097
:1006200000001010003040FF0101001F01011E00FA
:10063000191D1712003C3C3C3C0000000000CA1889
:1006400011241FBECFEFD8E0DEBFCDBF16E0A0E083
:10065000B1E0E2E3F4E302C005900D92A631B107E8
:10066000D9F727E0A6E1B6E001C01D92AB32B20790
:10067000E1F713E0C0E2D3E004C02197FE010E943D
:100680000C1ACF31D107C9F70E9498130C94171A8E
:100690000C9400000F931F93CF93DF93DC015696C9
:1006A0008C915697823071F0833009F1813009F0D6
:1006B0008CC01496ED91FC911597E41BF50BE21B91
:1006C000F30B20C01496ED91FC911597CF01861B7A
:1006D000970BBC01615071091696ED91FC9117972B
:1006E000CF01841B950BAC01421B530B6EC01696B9
:1006F000ED91FC911797CF01861B970BBC016150C0
:100700007109FA0177FD1BC116968D919C9117977F
:10071000681779070CF013C1F7FF04C02E0F3F1FB5
:10072000E0E0F0E014968D919C911597AF01420F97
:10073000531F841795071CF49C012E1B3F0B1216A8
:1007400013060CF0FCC0CB0177FD079643E09595AE
:1007500087954A95E1F79695982F882797958795DD
:10076000E80FF91FEB5FFE4F6770772781E090E09D
:1007700001C0880F6A95EAF7482F0130110541F052
:1007800088F00230110509F0DAC02E0F3F1F15C0A6
:100790002E0F3F1FE217F30709F4D1C08081842B8D
:1007A0008193F8CF80952E0F3F1FE217F30709F4CE
:1007B000C6C0908198239193F8CFE217F30709F40C
:1007C000BEC0808184278193F8CF77FDB8C014968E
:1007D0008D919C911597681779070CF0B0C057FF61
:1007E00004C0240F351F40E050E016968D919C9177
:1007F0001797FA01E20FF31F8E179F071CF49C0155
:10080000241B350B121613060CF099C0A22F842F4F
:1008100086958695869590E8899F600D711D1124B7
:10082000FB01EB5FFE4F4770A9F198E0941B492F45
:1008300050E0EA01CF5EDA4F8881291790F4421B1D
:1008400051092FEF30E002C0359527954A95E2F720
:1008500082230130110541F068F00230110589F062
:100860006EC00130110519F42081822B0CC00130BB
:10087000110520F480952081822305C002301105E6
:1008800031F4208182278083A91708F458C0A91B5E
:10089000E058FF4FA83048F10230110559F4EF013C
:1008A0008A2F988190959883C058DF4F8850883060
:1008B000C0F730C081E00130110509F080E081957A
:1008C000EF019A2F8883C058DF4F98509830D0F7A7
:1008D00088EF8A0F86958695869590E8899FE00D2A
:1008E000F11D1124E058FF4FA770AA2341F1B0E099
:1008F000A75FBA4F8C910130110529F038F0023012
:100900001105E9F419C09081892B18C08095908158
:10091000892314C088EF8A0F86958695869590E87E
:10092000899FE00DF11D1124E058FF4FA77039F0A9
:10093000B0E0A75FBA4F8C91908189278083DF91C7
:10094000CF911F910F9108950F931F93CF93DF9332
:10095000DC01FB0156968C915697823089F08330EA
:1009600021F1813009F0E7C014968D919C91159783
:10097000BC01641B750BAB0141505109BF011DC087
:1009800014966D917C911597CB018E1B9F0BFC01EA
:1009900016968D919C911797BC01641B750BAB014A
:1009A00041505109E21BF30BC6C016966D917C9124
:1009B00017976E1B7F0B621B730B57FD1BC11496A1
:1009C0008D919C911597481759070CF013C177FF2B
:1009D00004C0260F371F60E070E016968D919C9141
:1009E0001797FB01E20FF31F8E179F071CF49C0162
:1009F000261B370B121613060CF0FCC0A22F862FF5
:100A000086958695869590E8899F400D511D112405
:100A1000FA01EB5FFE4F6770A9F198E0961B492F32
:100A200050E0EA01CF5EDA4F8881291790F4421B2B
:100A300051092FEF30E002C0359527954A95E2F72E
:100A400082230130110541F068F00230110589F070
:100A5000D1C00130110519F42081822B0CC0013066
:100A6000110520F480952081822305C002301105F4
:100A700031F4208182278083A91708F4BBC0A91B09
:100A8000E058FF4FA83048F10230110559F4EF014A
:100A90008A2F988190959883C058DF4F885088306E
:100AA000C0F733C081E00130110509F080E0819585
:100AB000EF019A2F8883C058DF4F98509830D0F7B5
:100AC00088EF8A0F86958695869560E8869FE00D6B
:100AD000F11D1124E058FF4FA770AA2309F48AC022
:100AE000B0E0A75FBA4F8C910130110531F040F0B2
:100AF0000230110509F07EC01BC09081892B03C014
:100B0000809590818923808375C088EF8A0F8695B0
:100B10008695869570E8879FE00DF11D1124E058B9
:100B2000FF4FA77009F466C0B0E0A75FBA4F8C9181
:100B300090818927E8CF57FD5DC016968D919C91D5
:100B40001797481759070CF055C0F7FF04C02E0F30
:100B50003F1FE0E0F0E014968D919C911597BF0146
:100B6000620F731F861797071CF49C012E1B3F0B07
:100B7000121613060CF03EC0CA0157FD079663E03B
:100B8000959587956A95E1F79695982F882797957B
:100B90008795E80FF91FEB5FFE4F4770552781E0FF
:100BA00090E001C0880F4A95EAF7482F01301105FF
:100BB00039F078F002301105E9F42E0F3F1F13C011
:100BC0002E0F3F1FE217F307A9F08081842B81933A
:100BD000F9CF80952E0F3F1FE217F30759F0908150
:100BE00098239193F9CFE217F30721F080818427AE
:100BF0008193F9CFDF91CF911F910F910895FC015F
:100C000077FD9AC080859185681779070CF094C0AC
:100C100057FD92C082859385481759070CF08CC008
:100C20008689823009F07CC084819581DC01A61B15
:100C3000B70BBD016150710986819781FC01E41BEE
:100C4000F50BAF01415051090AC0813041F4848154
:100C50009581841B950BAB01BC016150710921305A
:100C6000310529F008F122303105E1F10895FA014A
:100C700057FD3796A3E0F595E795AA95E1F7F69528
:100C8000FE2FEE27F795E7956E0F7F1FFB01EB5FB9
:100C9000FE4F4770552781E090E001C0880F4A95CC
:100CA000EAF79081892B3AC0FA0157FD379623E085
:100CB000F595E7952A95E1F7F695FE2FEE27F7953E
:100CC000E7956E0F7F1FFB01EB5FFE4F47705527C7
:100CD00081E090E001C0880F4A95EAF78095908105
:100CE00089231CC0FA0157FD379683E0F595E795F7
:100CF0008A95E1F7F695FE2FEE27F795E7956E0FAB
:100D00007F1FFB01EB5FFE4F4770552781E090E0AE
:100D100001C0880F4A95EAF790818927808308955A
:100D2000833009F092CF86819781861B970BBA0199
:100D3000AC014150510993CF08950895FC016370AF
:100D4000668B8481958126813781613039F06330EB
:100D500029F09187808733872287089531872087FC
:100D60009387828708956F927F928F929F92AF921E
:100D7000BF92CF92DF92EF92FF920F931F93CF9388
:100D8000DF93EC014B015A0169013801E881F981D7
:100D90000284F385E02D0995E881F9810288F389C1
:100DA000E02D87019601A501B401CE010995A501A9
:100DB000460D571D41505109E881F9810288F38998
:100DC000E02D9601B401CE010995E881F9810088F2
:100DD000F189E02D9301A501B401CE010995C80C5C
:100DE000D91CB60161507109E881F9810088F18947
:100DF000E02D9301A501CE010995E881F9810688CE
:100E0000F789E02DCE01DF91CF911F910F91FF90D7
:100E1000EF90DF90CF90BF90AF909F908F907F909A
:100E20006F9009948F929F92AF92BF92CF92DF9270
:100E3000EF92FF920F931F93CF93DF934C016B01BF
:100E40005A01E901DC01ED91FC916217730781F40D
:100E50000417150724F48B2D5801042F182F0A1995
:100E60001B0998012F5F3F4F048CF58DE02D12C0B8
:100E70004017510709F52617370724F48D2D69010E
:100E8000C62FD82F9E012C193D092F5F3F4F068C8E
:100E9000F78DE02D8701A501B601C4010995DF9109
:100EA000CF911F910F91FF90EF90DF90CF90BF9067
:100EB000AF909F908F9008950284F385E02D09955F
:100EC000D401ED91FC910488F589E02D9E01A501E6
:100ED000B601C4010995D401ED91FC910688F7890A
:100EE000E02DC401DF91CF911F910F91FF90EF9002
:100EF000DF90CF90BF90AF909F908F900994EF922A
:100F0000FF920F931F93DC011A960D911C911B9772
:100F100018962D913C911997ED91FC9100A0F1A1AB
:100F2000E02D7B0140E050E060E070E009951F910A
:100F30000F91FF90EF9008954F925F926F927F9282
:100F40008F929F92AF92BF92CF92DF92EF92FF92D9
:100F50000F931F93CF93DF936C012B015A0139013B
:100F60004801DC01ED91FC910284F385E02D0995A7
:100F7000E201640C751CD601ED91FC91C615D705F4
:100F80005CF40088F189E02D87019401A501BE0180
:100F9000C60109952196EFCF0688F789E02DC60195
:100FA000DF91CF911F910F91FF90EF90DF90CF9045
:100FB000BF90AF909F908F907F906F905F904F9079
:100FC00009948F929F92AF92BF92CF92DF92EF924D
:100FD000FF920F931F93CF93DF93EC015B014A01C4
:100FE0006901E881F9810284F385E02D0995950175
:100FF0002C0D3D1D21503109E881F9810488F589C6
:10100000E02D78018401A401B501CE010995E881A4
:10101000F9810688F789E02DCE01DF91CF911F91EC
:101020000F91FF90EF90DF90CF90BF90AF909F9087
:101030008F9009948F929F92AF92BF92CF92DF923E
:10104000EF92FF920F931F93CF93DF93EC015B011D
:101050004A0169017801E881F9810284F385E02D74
:101060000995C80CD91C860101501109E881F98144
:101070000488F589E02D9501A401B501CE010995FB
:10108000E881F9810688F789E02DCE01DF91CF91C3
:101090001F910F91FF90EF90DF90CF90BF90AF9096
:1010A0009F908F9009940895EF92FF920F931F9352
:1010B000DC01ED91FC9100A0F1A1E02D09951F91BB
:1010C0000F91FF90EF9008950F931F93DC01ED9126
:1010D000FC91068CF78DE02D09951F910F910895D5
:1010E0000F931F93DC01ED91FC91048CF58DE02DA5
:1010F00009951F910F910895DC01ED91FC910084F9
:10110000F185E02D09942F923F924F925F926F925A
:101110007F928F929F92AF92BF92CF92DF92EF9287
:10112000FF920F931F93CF93DF9300D000D000D096
:10113000CDB7DEB72C017E836D836A015901C801EA
:10114000FC82EB824801841A950A97FE03C09194B1
:101150008194910835012D813E81621A730A77FED0
:1011600003C0719461947108681479045CF43A2D99
:101170002B2D5C01832F922F3D812E81DE82CD822B
:10118000C32ED22EAD81BE81AA16BB065CF43C2DC7
:101190002D2D6C01832F922F3D812E81BE82AD8239
:1011A000A32EB22E85012D813E81021B130B1C0143
:1011B0002C183D0837FE03C0319421943108780182
:1011C00017FF03C03FEFE31AF30AF594E794C8163C
:1011D000D9062CF08FEF9FEF9A83898304C0A1E09A
:1011E000B0E0BA83A9832D813E81A216B30624F113
:1011F000D201ED91FC910484F585E02D2B813C8199
:101200006814790424F44D815E81B60103C0A601FF
:101210006D817E81C2010995E218F308F7FE06C0D0
:1012200029813A81C20ED31EE00EF11E8D819E816E
:1012300001969E838D83D7CF26960FB6F894DEBF96
:101240000FBECDBFDF91CF911F910F91FF90EF9017
:10125000DF90CF90BF90AF909F908F907F906F90D6
:101260005F904F903F902F90089585ED8093BC0044
:101270008091BC0084FDFCCF1092CB060895409174
:101280005A06262F30E0240F311D21323105DCF4BF
:101290002091CB062430C9F4FC0180E090E0861751
:1012A00058F430915A062191DC01A65CB94FA30F86
:1012B000B11D2C930196F3CF80915A06680F60936D
:1012C0005A0680E0089581E0089582E00895089527
:1012D0000895E091820680918106E81730F4F0E0ED
:1012E000E65EF94F808190E008958FEF9FEF0895BB
:1012F0009091820680918106981750F4E92FF0E0D2
:10130000E65EF94F208130E09F5F9093820602C035
:101310002FEF3FEFC90108958091810690E0209161
:101320008206821B91090895CF92DF92EF92FF927D
:101330000F931F93CF93DF937C01CB018A01209100
:10134000CC06222389F0EB016B01C40ED51ECC150F
:10135000DD0569F06991D701ED91FC910190F08173
:10136000E02DC7010995F3CF642F0E943F09C80102
:10137000DF91CF911F910F91FF90EF90DF90CF9071
:101380000895CF93DF931F92CDB7DEB76983209185
:10139000CC062223D1F02091EE06203240F021E04D
:1013A00030E0FC013383228380E090E015C080911F
:1013B000CD06E82FF0E0E253F94F998190838F5FDB
:1013C0008093CD068093EE0605C061E0CE010196C4
:1013D0000E943F0981E090E00F90DF91CF91089546
:1013E000089580E090E008958F929F92AF92CF92FF
:1013F000EF92FF920F931F93CF93DF93EC01262F71
:10140000898D9A8D009709F042C06A3059F41D8683
:101410001C862D898E859F8538E0239F800D911D28
:10142000112443C06D3009F4AAC08F898823C9F004
:101430003C898C859D8546E0349F800D911D11244B
:10144000488559854817590764F41D861C863D89CF
:101450008E859F8548E0349F800D911D11249F87C4
:101460008E87EA88FB88088919894E855F856C8597
:101470007D85AD88CC88CE010E9479102C898C8521
:101480009D8536E0239F800D911D11243EC06A305A
:1014900079F41D861C862D89FC013896E4918E8591
:1014A0009F852E9F800D911D11249F878E8767C079
:1014B0006D3009F464C0FC0134963491631708F46C
:1014C0005EC03296E491E61708F459C0462F431BDC
:1014D000342FFC0132968590949047E0349F800C25
:1014E000911C1124F401329634913196E491332306
:1014F00011F0E1110DC0F4013496E4912C898C8532
:101500009D85E29F800D911D11249D878C8737C09A
:10151000F401359644915F89552319F15C89E32FD5
:10152000F0E0E40FF11D47FDFA955E9FB0015F9F6B
:10153000700D11244C855D85460F571F6885798590
:101540006417750774F41D861C863D89FC01389666
:10155000E4918E859F853E9F800D911D11249F876C
:101560008E87EA88FB88088919894E855F856C8596
:101570007D85AD88CC88CE010E947910BCCF81E0FA
:1015800090E0DF91CF911F910F91FF90EF90CF905E
:10159000AF909F908F900895CF92DF92EF92FF923D
:1015A00082E00E94AD126C01990FEE08FF08C09214
:1015B0001606D0921706E0921806F092190680914E
:1015C000830690918406A0918506B0918606C81680
:1015D000D906EA06FB06C9F083E00E94AD12092E87
:1015E000000CAA0BBB0B20918F0630919006C816F9
:1015F000D906EA06FB0619F42150310902C02F5F13
:101600003F4F3093900620938F06C0928306D0926E
:101610008406E0928506F0928606FF90EF90DF90B8
:10162000CF9008951F920F920FB60F9211242F930F
:101630003F934F935F936F937F938F939F93AF935A
:10164000BF93EF93FF938091B900887F803609F4B0
:101650009CC068F5883209F45BC090F4803109F4CD
:1016600054C038F4882309F4F6C0883009F44DC01A
:10167000F6C0883109F44CC0803209F45DC0EFC077
:10168000803409F468C048F4803309F455C08833C5
:1016900009F0E5C08093C906D8C0803509F44FC071
:1016A000883509F45DC0883409F0D9C0D6C08839BE
:1016B00009F4C7C0A8F4883709F467C038F488363D
:1016C00009F463C0803709F460C0C9C0883809F4E0
:1016D000B8C0803909F45FC0803809F0C0C05BC071
:1016E000803B09F486C038F4803A09F466C0883A31
:1016F00009F47FC0B4C0803C09F4A7C0883C09F459
:10170000A4C0883B09F48AC0AAC08091A60610C074
:101710009091C8068091C706981770F5E091C806A9
:1017200081E08E0F8093C806F0E0E955F94F808183
:101730008093BB0085EC86C08093C9068EC0E09183
:10174000C80681E08E0F8093C8068091BB00F0E050
:10175000E955F94F80839091C8068091C7066EC005
:10176000E091C80681E08E0F8093C8068091BB008F
:10177000F0E0E955F94F80838091CA0681116DC070
:1017800081E08093A50684EA61C083E08093CB0664
:1017900010927C06CFCF80917C06803208F051C039
:1017A000E0917C0681E08E0F80937C068091BB00E7
:1017B000F0E0E45AF94F8083BDCF85EC8093BC0004
:1017C0001092CB0680917C06803230F4E0917C064A
:1017D000F0E0E45AF94F108260917C0670E0E091ED
:1017E0007D06F0917E068CE596E0099510927C06C8
:1017F00036C084E08093CB0610925B0610925A06A6
:10180000E0917F06F0918006099580915A0681113A
:1018100005C081E080935A0610923A06E0915B067B
:1018200081E08E0F80935B06F0E0E65CF94F8081EB
:101830008093BB0090915B0680915A06981708F43C
:1018400079CF85E88093BC000AC085EC8093BC000A
:101850001092CB0604C01092C9060E943509FF9170
:10186000EF91BF91AF919F918F917F916F915F9118
:101870004F913F912F910F900FBE0F901F90189591
:1018800090E00197FC01E957F94F2081222339F0BC
:10189000FC01E75EFA4F61E080810C94D612089556
:1018A00090918E06911104C090918D06992321F09C
:1018B000973018F096E001C091E0811102C0892FA5
:1018C00001C080E0863049F08F5FE82FF0E0EA57F2
:1018D000F94F20812223B1F30895892F0895882399
:1018E00041F0E82FF0E0E85EFA4F60E080810C9470
:1018F000D612089580E094E0E5E0F1E0DF019C017C
:101900001D9221503040E1F7EBEFF6E081E0848B4F
:10191000858B21E030E0318B208B138A128A808FF7
:1019200008950895CF92DF92EF92FF920F931F9345
:10193000CF93DF936C017A018B01C0E0D0E0CE152C
:10194000DF0581F0D8016D918D01D601ED91FC91FB
:101950000190F081E02DC6010995892B11F02196A7
:10196000EECF7E01C701DF91CF911F910F91FF90C4
:10197000EF90DF90CF9008950E94121A3FB7F8942D
:101980008091A1069091A206A091A306B091A40611
:1019900026B5A89B05C02F3F19F00196A11DB11DCA
:1019A0003FBFBA2FA92F982F8827820F911DA11D05
:1019B000B11DBC01CD0142E0660F771F881F991F42
:1019C0004A95D1F708951F920F920FB60F921124E6
:1019D0002F933F938F939F93AF93BF9380919D06D7
:1019E00090919E06A0919F06B091A00630919C0612
:1019F00023E0230F2D3720F40196A11DB11D05C052
:101A000026E8230F0296A11DB11D20939C0680930A
:101A10009D0690939E06A0939F06B093A00680918A
:101A2000A1069091A206A091A306B091A4060196EA
:101A3000A11DB11D8093A1069093A206A093A306B9
:101A4000B093A406BF91AF919F918F913F912F9139
:101A50000F900FBE0F901F9018951F920F920FB608
:101A60000F9211242F933F934F935F936F937F9324
:101A70008F939F93AF93BF93EF93FF93E0910201F6
:101A8000F09103010995FF91EF91BF91AF919F9163
:101A90008F917F916F915F914F913F912F910F9017
:101AA0000FBE0F901F9018951F920F920FB60F92B6
:101AB00011242F933F934F935F936F937F938F9353
:101AC0009F93AF93BF93EF93FF93E0910001F09149
:101AD00001010995FF91EF91BF91AF919F918F9176
:101AE0007F916F915F914F913F912F910F900FBE1A
:101AF0000F901F9018953091EE06313208F04BC0D0
:101B00008091CB068111FCCF90912A0722E020938F
:101B1000CB0621E02093CA062FEF2093C90610922E
:101B2000C8063093C706EEECF6E0A7EAB6E020E080
:101B3000321721F041914D932F5FFACF1092A606F4
:101B40002091A606990F922B9093A6069091A50638
:101B5000913061F41092A5069091A6069093BB0077
:101B60009091BC0093FDF8CF95EC01C095EE909359
:101B7000BC009091CB069230E1F39091C9069F3F53
:101B800079F08091C906803241F08091C906803396
:101B900031F084E005C081E003C082E001C083E051
:101BA0001092CD061092EE061092CC0608959091F8
:101BB0001D07992339F08EBD00000DB407FEFDCF3F
:101BC0008EB5089528E030E040E8E0912007F091DC
:101BD0002107508190912707909595239083E0915C
:101BE0001E07F0911F0790912607582F542319F0D4
:101BF0005081952B03C05081909595239083E0915F
:101C00002007F0912107508190912707952B908311
:101C1000469521503109C9F60895833081F028F4A2
:101C2000813099F08230A1F008958730A9F0883092
:101C3000B9F08430D1F4809180008F7D03C0809111
:101C400080008F7780938000089584B58F7702C0DD
:101C500084B58F7D84BD08958091B0008F7703C0D7
:101C60008091B0008F7D8093B0000895CF93C82FEE
:101C7000809118078F3F59F1E0912207F0912307D7
:101C8000908180912807892B8083E0912407F0912F
:101C90002507908180912907809589238083E09191
:101CA0002207F0912307908180912807809589234E
:101CB00080838C2F0E94D70DE0912207F09123079B
:101CC000908180912807892B8083CF9108958091FE
:101CD000160791E09093CC0680932A071092CD06C8
:101CE0001092EE0660E08FEE96E00E94C1096C2F24
:101CF0008FEE96E00E94C109CF910C947B0DAF92BC
:101D0000BF92CF92DF92EF92FF920F931F93CF93E8
:101D1000DF9380E00E94360E80E10E94360E80E460
:101D20000E94360E809118078F3F09F453C030EBA4
:101D3000D32EC0E0D0E08D2D0E94360E82E00E94AE
:101D4000360E80E10E94360E00E010E0E09122079E
:101D5000F0912307908180912807892B8083E0915F
:101D60002407F0912507908180912907892B808392
:101D7000E0912207F09123079081809128078095B8
:101D800089238083CE01800F911F9C012B5F3E4FE2
:101D9000790120E1C22EF70181917F010E94D70DC8
:101DA000CA94C110F8CFE0912207F09123079081E7
:101DB00080912807892B8083005F1F4F0038110511
:101DC00029F6C058DF4FD394C115F4E0DF0709F0BE
:101DD000B2CF48C0B090B8008CE08093B80090EBD0
:101DE000D92EC0E0D0E0AA24A3948D2D0E94360EF7
:101DF00082E00E94360E80E10E94360E00E010E084
:101E000080911607A092CC0680932A071092CD06E7
:101E10001092EE0660E48FEE96E00E94C109CE01BA
:101E2000800F911F9C012B5F3E4F790180E1C82EEE
:101E3000F70161917F018FEE96E00E94C109CA947B
:101E4000C110F6CF0E947B0D005F1F4F00381105B7
:101E5000B9F6C058DF4FD394C115F4E0DF0729F677
:101E6000B092B800DF91CF911F910F91FF90EF904A
:101E7000DF90CF90BF90AF900895009769F0FC017C
:101E800001900020E9F73197AF01481B590BBC01C5
:101E90008BEF96E00C94920C80E090E008958F9286
:101EA0009F92AF92BF920F931F93CF93DF93CDB7C3
:101EB000DEB7A1970FB6F894DEBF0FBECDBF19A253
:101EC000423008F44AE08E010F5D1F4F842E912CA2
:101ED000A12CB12CA50194010E94DB19E62FB901B8
:101EE000CA0101501109EA3014F4E05D01C0E95C57
:101EF000D801EC93232B242B252B61F7C8010E94DA
:101F00003D0FA1960FB6F894DEBF0FBECDBFDF9197
:101F1000CF911F910F91BF90AF909F908F90089598
:101F20000F931F93CF93DF938C01C0E0D0E0F801B3
:101F3000EC0FFD1F6491662341F08BEF96E00E9449
:101F4000F409892B11F02196F2CFCE01DF91CF91C8
:101F50001F910F9108952F923F924F925F926F922F
:101F60007F928F929F92AF92BF92CF92DF92EF9229
:101F7000FF920F931F93CF93DF937C016B01EA01D4
:101F800081E090E05C01A41AB50A66247724641A03
:101F9000750A660C771C00E010E088248394912C6D
:101FA000822F8470582E822F8270482E822F887044
:101FB000382E2170222E0C171D070CF079C0B7FCAB
:101FC00006C0219782E0680E711CA60CB71C0F5F3B
:101FD0001F4F82E0880E911CA80CB91C5520C1F03F
:101FE00021E030E0AE014C0D5D1DB701600F711FA7
:101FF0008BEF96E00E947C0821E030E0A601400FC4
:10200000511FBE016E0D7F1D8BEF96E00E947C0874
:102010004420C1F021E030E0A6014C1B5D0BB7016C
:10202000600F711F8BEF96E00E947C0821E030E08A
:10203000A601401B510BBE016E0D7F1D8BEF96E07C
:102040000E947C083320C1F021E030E0A601400F5F
:10205000511FB7016C1B7D0B8BEF96E00E947C0833
:1020600021E030E0AE014C0D5D1DB701601B710B2E
:102070008BEF96E00E947C08222009F49CCF21E09F
:1020800030E0A601401B510BB7016C1B7D0B8BEFA1
:1020900096E00E947C0821E030E0A6014C1B5D0B1D
:1020A000B701601B710B8BEF96E00E947C0883CF19
:1020B000DF91CF911F910F91FF90EF90DF90CF9024
:1020C000BF90AF909F908F907F906F905F904F9058
:1020D0003F902F900895CF93DF930E94900FEC01D3
:1020E00083E196E00E943D0F8C0F9D1FDF91CF9101
:1020F00008952F923F924F925F926F927F928F92AC
:102100009F92AF92BF92CF92DF92EF92FF920F9386
:102110001F93CF93DF93CDB7DEB76B970FB6F894CD
:10212000DEBF0FBECDBF9B8F8A8F1B014A01D22E0F
:10213000198708873701A982DC0159962D913C91B6
:102140005A972115310509F0FFC018968D919C9181
:102150001997681779070CF0E7C11A968D919C9131
:102160001B97481759070CF0DFC1EC2DF0E0FB83FB
:10217000EA839B0146E0C49E200D311D11243D875A
:102180002C87121613060CF0CFC16A2D70E07B87E6
:102190006A8783E0660F771F8A95E1F77F876E87EE
:1021A000CB01880D991D181619060CF0BDC1589663
:1021B0008C91811104C08FEA8D1508F4D394AA8DF7
:1021C000BB8DED91FC9111970284F385E02DCD013B
:1021D0000995B5E0DB9EC0011124EC2DF0E0F98BF0
:1021E000E88B91012B5F3F4F3B8B2A8B3D822C82EA
:1021F0002101AC01421953095D8B4C8B7981672F0A
:1022000070E07F8B6E8BC4010896998F888FEC8964
:10221000FD89E40DF51DE25CFE4FD49054019F82D0
:102220008E82D0FE16C0AA8DBB8DED91FC91B1E0DF
:10223000CB1209C02981213031F40484F585E02DC9
:102240002885398519C00684F785E02DE884F9844E
:102250001DC0488559854615570519F1AA8DBB8DB6
:10226000ED91FC91B1E0CB120DC02981213051F4E8
:102270000484F585E02D9301A501B2018A8D9B8D23
:1022800009950FC00684F785E02D73010A851B852B
:102290002A813B814E815F816C817D818A8D9B8DFE
:1022A0000995D6943FEFA31AB30A4E815F816E89D8
:1022B0007F89460F571F5F834E83888D998DA8169F
:1022C000B90609F0AECF9FEF491A590AAC81BD811A
:1022D000E889F989AE0FBF1FBD83AC832A893B898A
:1022E0004216530609F093CF488559854615570580
:1022F00009F4F8C0AA8DBB8DED91FC91B1E0CB1231
:1023000011C02981213071F4B1016B5F7F4F0088CA
:10231000F189E02D830128E030E0A4018A8D9B8DB6
:102320000995E0C06C857D854A815B81641B750BD6
:102330000684F785E02D73010E851F859A01A4019F
:102340008A8D9B8D0995CEC0F9013496E491DE1AF1
:10235000F901329685919491B7E0DB9E800D911D35
:102360001124F901259134913B8B2A8BFC01259195
:1023700034915901FC0132965490319634913C8746
:10238000329674903196149141E04C1518F05981B1
:10239000523068F0672D072C000C770B7D836C831F
:1023A000812F012E000C990B9B838A8304C01B8212
:1023B0001A821D821C82AA8DBB8DED91FC91119712
:1023C0000284F385E02DCD010995412CD12C612C9F
:1023D000F981EF2FF0E0FF83EE832C2D30E03B8777
:1023E0002A87A401410F511D17FD5A955F8B4E8B13
:1023F000B101670D711D77FC7A95798F688F7C85A7
:10240000671608F06FC0262D30E04A815B81420FCD
:10241000531FAE81BF81A49FC001A59F900DB49FA3
:10242000900D1124F401E80FF91FF98BE88B842D2E
:10243000712C4E895F89420F531F5D8B4C8B751435
:1024400008F04DC051E0580F5E87877041F4C50118
:102450000196EA89FB89EA0DFB1DD4905C01D7FE49
:102460003AC061E0C61216C07981713099F4AA8D24
:10247000BB8DED91FC9111970484F585E02D2885A5
:1024800039854C895D89688D798D670D711DCD0108
:10249000099521C08C819D81870D911DEA85FB8561
:1024A0008E9FB0018F9F700D9E9F700D1124620D45
:1024B000731DAA8DBB8DED91FC9111970684F78554
:1024C000E02DE884F9840E811F812A853B854889A7
:1024D0005989CD010995DD0C73948E85B0CF450CDB
:1024E00063948DCFAA8DBB8DED91FC9111970688D9
:1024F000F789E02DCD016B960FB6F894DEBF0FBEC5
:10250000CDBFDF91CF911F910F91FF90EF90DF90A2
:10251000CF90BF90AF909F908F907F906F905F9083
:102520004F903F902F9009946B960FB6F894DEBFB2
:102530000FBECDBFDF91CF911F910F91FF90EF9014
:10254000DF90CF90BF90AF909F908F907F906F90D3
:102550005F904F903F902F900895CF93DF93282F57
:1025600030E0F901E65DFE4F8491F901EA5EFE4F2D
:10257000D491F901EE5FFE4FC491CC2391F081110B
:102580000E940D0EEC2FF0E0EE0FFF1FE850FF4F02
:10259000A591B491EC91ED2381E090E021F480E0ED
:1025A00002C080E090E0DF91CF9108951F93CF9318
:1025B000DF93282F30E0F901E65DFE4F8491F901A9
:1025C000EA5EFE4FD491F901EE5FFE4FC491CC2339
:1025D000C1F0162F81110E940D0EEC2FF0E0EE0FCE
:1025E000FF1FE251FF4FA591B4919FB7F8941111CD
:1025F00004C08C91D095D82302C0EC91DE2BDC93E3
:102600009FBFDF91CF911F910895CF93DF9390E00B
:10261000FC01EA5EFE4F2491FC01EE5FFE4F8491C7
:10262000882361F190E0880F991FFC01EC51FF4F66
:10263000C591D491FC01E251FF4FA591B491611174
:1026400009C09FB7F8948881209582238883EC91F4
:102650002E230BC0623061F49FB7F8948881322F2B
:10266000309583238883EC912E2B2C939FBF06C03B
:102670008FB7F894E8812E2B28838FBFDF91CF91FD
:1026800008958E3008F08E502091040190E4299F27
:10269000900111248770822B80937C0080917A00B6
:1026A000806480937A0080917A0086FDFCCF8091CF
:1026B00078002091790090E0922B08958F929F925C
:1026C000AF92BF92CF92DF92EF92FF926B017C01AB
:1026D0000E94BE0C4B015C01C114D104E104F10461
:1026E000F1F00E94BE0CDC01CB0188199909AA09FE
:1026F000BB09883E9340A105B10570F321E0C21AE1
:10270000D108E108F10888EE880E83E0981EA11C2C
:10271000B11CC114D104E104F10419F7DDCFFF901D
:10272000EF90DF90CF90BF90AF909F908F900895E3
:10273000CF93DF9300D01F92CDB7DEB7789484B5E6
:10274000826084BD84B5816084BD85B5826085BDAD
:1027500085B5816085BD80916E00816080936E003B
:10276000109281008091810082608093810080912D
:1027700081008160809381008091800081608093DE
:1027800080008091B10084608093B1008091B0009E
:1027900081608093B00080917A00846080937A0099
:1027A00080917A00826080937A0080917A008160C3
:1027B00080937A0080917A00806880937A001092EA
:1027C000C1001AB817B814B809E115E0198261E020
:1027D000D8018D918D010E940513B981BF5FB98326
:1027E0008B2F0E946F0CE981E63089F7109204016B
:1027F00080E00E944113BC01990F880B990B611571
:1028000071058105910511F00E94A01982E0809365
:1028100017078CE380931607809118078F3F09F400
:10282000C1C061E080911A070E94051361E08091A8
:102830001C070E94051380911C07082E000C990BA1
:10284000FC01EE5FFE4FE491F0E0EE0FFF1FE2515E
:10285000FF4F259134913093230720932207FC01E9
:10286000EA5EFE4FE491E093280780911A07082E54
:10287000000C990BFC01EE5FFE4FE491F0E0EE0FCF
:10288000FF1FE251FF4F259134913093250720938C
:102890002407FC01EA5EFE4FE491E0932907809152
:1028A0001D0781113EC061E0809118070E94051349
:1028B00061E0809119070E94051380911907082E85
:1028C000000C990BFC01EE5FFE4FE491F0E0EE0F7F
:1028D000FF1FE251FF4F2591349130932107209340
:1028E0002007FC01EA5EFE4FE491E0932707809108
:1028F0001807082E000C990BFC01EE5FFE4FE491C7
:10290000F0E0EE0FFF1FE251FF4F2591349130931D
:102910001F0720931E07FC01EA5EFE4FE491E0933F
:10292000260780911D07882309F46FC0FFB7F9833C
:10293000F89480919106811127C0ECE0F1E0849138
:10294000E0E2F1E09491E82FF0E0EE0FFF1FEC5190
:10295000FF4FA591B491EC91E92321F461E08AE065
:102960000E94D61261E08AE00E9405138CB5806156
:102970008CBD8CB580648CBD61E08DE00E94051338
:1029800061E08BE00E940513809191068F5F809338
:10299000910629812FBF8CB58C7F8CBD8DB5816050
:1029A0008DBD33C010928206109281061092CD0622
:1029B0001092EE061092CB0681E08093CA06109228
:1029C000A50661E082E10E94D61261E083E10E94E7
:1029D000D6128091B9008E7F8093B9008091B900A2
:1029E0008D7F8093B90088E48093B80085E480935C
:1029F000BC0087E699E09093800680937F0688E686
:102A000099E090937E0680937D0661E080911B079C
:102A10000E94051361E080911B070E94D61261E0BD
:102A200070E080E090E00E945E1360E080911B0700
:102A30000E94D6126AE070E080E090E00E945E138F
:102A400061E080911B070E94D6128EEA0E94360E2A
:102A500085ED0E94360E80E80E94360E88EA0E94BC
:102A6000360E8FE30E94360E83ED0E94360E80E014
:102A70000E94360E80E40E94360E8DE80E94360ECB
:102A800084E10E94360E80E20E94360E80E00E94B1
:102A9000360E81EA0E94360E88EC0E94360E8AEDD0
:102AA0000E94360E82E10E94360E81E80E94360EA8
:102AB0008FEC0E94360E89ED0E94360E81EF0E9447
:102AC000360E8BED0E94360E80E40E94360E84EAAC
:102AD0000E94360E86EA0E94360E8FEA0E94360E5B
:102AE00060E082E00E94051360E083E00E9405132D
:102AF00062E084E00E94051382E00E94AD12092E7C
:102B0000000CAA0BBB0B8093830690938406A093C2
:102B10008506B09386062CEC3AE0309301012093B1
:102B20000001809169008C7F816080936900E89A40
:102B3000309303012093020180916900837F8460B8
:102B400080936900E99A80E094E0E5E0F1E0DF013C
:102B50009C011D9221503040E1F70E947A0C80E3E5
:102B600090E0909308078093070780E190E09093AE
:102B70000A078093090784E890E00E946B10A0E3A5
:102B8000B0E0B0930807A09307078CE190E0909322
:102B90000A078093090786E790E00E946B10E0E344
:102BA000F0E0F0930807E093070788E290E0909345
:102BB0000A078093090781E790E00E94900F88E65A
:102BC00090E00E946B1001E010E023E130E044E16E
:102BD00050E066E070E08BEF96E00E94640823E12D
:102BE00030E04AE250E066E070E08BEF96E00E9451
:102BF000640823E130E046E150E064E070E08BEFF0
:102C000096E00E94700823E130E046E150E06AE17E
:102C100070E08BEF96E00E94700821E042E050E007
:102C200066E170E086E090E00E94AB0F22E042E0B7
:102C300050E066E170E088E190E00E94AB0F24E094
:102C400042E050E068E270E088E190E00E94AB0F63
:102C500028E042E050E068E270E086E090E00E9408
:102C6000AB0F25E030E03B832A83EE24E394F12C84
:102C700002E110E02A813B8140E150E0B9018BEF95
:102C800096E00E9412070EE210E02A813B814CE29E
:102C900050E0B9018BEF96E00E941207CA80DB80FA
:102CA00030E1C30ED11C860122E030E0A60160E0D5
:102CB00070E08BEF96E00E9412072EE130E0A60153
:102CC0006CE170E08BEF96E00E9412078A819B8195
:102CD00004969B838A834D9741F60E947F0E60ED98
:102CE00077E080E090E00E945E131B821A82EE245F
:102CF000E394F12C00E410E026E030E040E050E006
:102D00006A817B818BEF96E00E949C070E947F0E78
:102D1000CA80DB8096E0C90ED11CA4E8CA16D10493
:102D200089F0E12CF12C00E410E026E030E040E0F6
:102D300050E06A817B818BEF96E00E949C07DB82EA
:102D4000CA82D5CF80E094E0E5E0F1E0DF019C01AC
:102D50001D9221503040E1F70E947F0EEE24EA944C
:102D6000FE2C70E1272E312C30919B063983109276
:102D70009B0681E10E94AD1221E0892B09F420E03D
:102D800020939206822F90E090939506809394066C
:102D900007E215E055E2C52E55E0D52E5524539493
:102DA000D8011C968D909C901D9735E0432EA12C48
:102DB00044E0B42E3401B8E16B1A7108F601808149
:102DC0000E9441138615970540F048968115F4E05E
:102DD0009F072CF08FEF93E002C080E090E08A150F
:102DE0009B050CF45C0165E070E080E090E00E94DF
:102DF0005E134A944110E2CF80919406909195061B
:102E000040919B0654E0550D950128213921E52D6F
:102E1000F0E0E25EFA4FE081F0E0E957F94F61E05F
:102E20008216930609F060E060838216930619F417
:102E3000882999294F5F880C991C5394551551F096
:102E400026E0251508F79093950680939406409305
:102E50009B0613C0909395068093940640939B061F
:102E60008BE295E08017910741F00C5F1F4F8FEFC9
:102E7000C81AD80A97E0591293CF10919B061111E6
:102E80000BC080918D060E946F0C109296061092D6
:102E90008E0610928D061FC099819117E1F08091E6
:102EA0008D06882349F0E82FF0E0EA57F94F90812A
:102EB000911111C00E946F0C10928E0610928D0617
:102EC00081E00E94500C882331F080938E0680931D
:102ED0008D060E94400C80918F0690919006892B60
:102EE00099F1123008F416C12FB7F89480919D061D
:102EF00090919E06A0919F06B091A0062FBF409191
:102F00009706509198066091990670919A06841BD5
:102F1000950BA60BB70B893C9105A105B10508F0EF
:102F2000FEC0F8C0892B09F019C1109290061092CA
:102F30008F0681E090918E06911101C080E0809310
:102F40009606EE24EA94FE2C0091940610919506C4
:102F50000E151F0529F480919606882309F4B5C043
:102F60000E947A0C10920C0710920B07A1E0B0E0BF
:102F7000B0930E07A0930D07109208071092070751
:102F800010920A07109209078EEC90E00E94900FB1
:102F9000E1E0F0E0F0930C07E0930B0710920E07CE
:102FA00010920D07109208071092070730920A0737
:102FB0002092090780EC90E00E94900F60918D06AE
:102FC000662339F070E080E090E04AE00E944F0F05
:102FD00004C08CEB90E00E94900F20919606222373
:102FE00041F08091930682FB882780F9F1E08F27DA
:102FF00001C081E090E090930C0780930B07109242
:103000000E0710920D07109208071092070788E12B
:1030100090E090930A0780930907222319F080918A
:103020008E0602C080918D0626E1829FC001112488
:10303000855C9A4F0E943D0F81E090E090930C07D1
:1030400080930B0710920E0710920D07109208073D
:103050001092070780E290E090930A078093090797
:103060008FEA90E00E94900F80919206882319F0D9
:103070008BEA90E002C081EA90E00E94900FA1E00C
:10308000B0E0B0930C07A0930B0710920E071092BC
:103090000D07109208071092070780E390E09093C5
:1030A0000A07809309078FE890E00E94900F6091D3
:1030B0009B0670E080E090E04AE00E944F0F0E9483
:1030C0007F0E0091940610919506809196068823B4
:1030D000A1F084E00E94AD12892B79F4109296063B
:1030E00080918D060E946F0C80918E0680938D06D4
:1030F00081110E94400C0FEF1FEF809193068F5FAC
:103100008093930662E070E080E090E00E945E139E
:1031100078012ACE1092900610928F0615CF2FB705
:10312000F89480919D0690919E06A0919F06B09183
:10313000A0062FBF8093970690939806A0939906B8
:10314000B0939A0680918F069091900618161906F2
:103150000CF0E8CE80E00E94500C19C080918E06E1
:10316000811104C080918D06882381F0873008F09A
:1031700086E0982F913059F09150E92FF0E0EA570E
:10318000F94F20812223B1F3892F01C081E0809380
:103190008E06CBCEEFEEF6E01382128288EE93E03D
:1031A000A0E0B0E084839583A683B78389ED95E0A2
:1031B00091838083EBEFF6E01382128220E830E007
:1031C0003583248380E490E097838683318720874A
:1031D00093878287168A158614861786168681E05D
:1031E000858B848B2FEF3FEF338B228B318B208BA2
:1031F000878B108E128E118E8BEE95E091838083DB
:103200008FEF858F81A3878F868F80A308958F92FC
:103210009F92AF92BF92CF92DF92EF92FF92CF93A5
:10322000DF93EC01688179818A819B816115710549
:103230008105910521F464E279ED8BE597E02DE1BC
:1032400033EF41E050E00E94A91949015A019B0166
:10325000AC01A7EAB1E40E94C8196B017C01ACEE95
:10326000B4EFA50194010E94D619DC01CB018C0DAD
:103270009D1DAE1DBF1DB7FF03C00197A109B0483A
:1032800088839983AA83BB83BC01CD019F77DF919B
:10329000CF91FF90EF90DF90CF90BF90AF909F9035
:1032A0008F9008958F929F92AF92BF92CF92DF92AC
:1032B000EF92FF92609105057091060580910705D8
:1032C00090910805611571058105910521F464E26D
:1032D00079ED8BE597E02DE133EF41E050E00E947E
:1032E000A91949015A019B01AC01A7EAB1E40E9466
:1032F000C8196B017C01ACEEB4EFA50194010E94EA
:10330000D619DC01CB018C0D9D1DAE1DBF1DB7FF75
:1033100003C00197A109B048809305059093060565
:10332000A0930705B0930805BC01CD019F77FF90DE
:10333000EF90DF90CF90BF90AF909F908F900895C7
:103340006093050570930605809307059093080523
:103350000895052E97FB1EF400940E94C01957FD96
:1033600007D00E94DB1907FC03D04EF40C94C0195F
:1033700050954095309521953F4F4F4F5F4F0895A1
:1033800090958095709561957F4F8F4F9F4F0895D1
:103390000E94FD19A59F900DB49F900DA49F800DD4
:1033A000911D11240895B7FF0C94C8190E94C819E3
:1033B000821B930B0895A1E21A2EAA1BBB1BFD01D1
:1033C0000DC0AA1FBB1FEE1FFF1FA217B307E40704
:1033D000F50720F0A21BB30BE40BF50B661F771F5C
:1033E000881F991F1A9469F760957095809590953C
:1033F0009B01AC01BD01CF010895A29FB001B39F15
:10340000C001A39F700D811D1124911DB29F700DED
:10341000811D1124911D0895EE0FFF1F0590F49159
:10342000E02D099481E090E0F8940C94171AF89438
:02343000FFCFCC
:10343200910C910C0100000000000000000000004F
:10344200000000000000000000000000000000007A
:10345200000000000000000000000000000000006A
:10346200000000000000000000000000000000005A
:1034720000000000808080000000000000000000CA
:103482000000000000008080C0C0000000000000BA
:10349200000000000000000000000000000000002A
:1034A200000000000000000000000000000000001A
:1034B200000000000000000000000000000000000A
:1034C20000000000000000000080C0E0F0F8FCF8FE
:1034D200E00000000000000000000000000000000A
:1034E200000080808080800080800000000080805A
:1034F20080808000FFFFFF0000000080808080004D
:10350200008080000080FFFF80800080800080803B
:1035120080800080800000000000808000008C8E8F
:1035220084000080F8F8F88000000000000000002D
:103532000000000000F0F0F0F0F0F0F0F0F0F0F039
:10354200F0E0E0C08000E0FCFEFFFFFF7FFFFFFF36
:10355200FFFF00000000000000000000000000006B
:10356200FEFFC70101010183FFFF00007CFEC701CE
:1035720001010183FFFFFF0038FEC78301010183C0
:10358200C7FFFF000001FFFF010100FFFF0701016C
:103592000100007FFF80000000FFFF7F0000FFFFAF
:1035A200FF000001FFFFFF0100000000000000001B
:1035B2000000000000030F3F7F7FFFFFFFFFFFFFC0
:1035C200FFE7C7C78F8F9FBFFFFFC3C0F0FFFFFF9B
:1035D200FFFFFCFCFCFCFCFCFCFCF8F8F0F0E0C09B
:1035E20000010303030303010303000000000103BE
:1035F20003030301010301000000010303030301AC
:1036020001030300000003030000000303000000A5
:103612000000000001030303030301000000010393
:103622000100000003030100000000000000000090
:10363200000000000000000080C0E0F0F9FFFFFF82
:10364200FFFF3F1F0F87C7F7FFFF1F1F3DFCF8F863
:10365200F8F87C7DFFFFFFFFFFFFFFFF7F3F0F07B3
:1036620000303000000000000000000000000000F8
:10367200000000000000000000FEFEFC0000000050
:103682000000000000000000000000000000000038
:103692000000E0C000000000000000000000003058
:1036A20030000000000000000000000000000000E8
:1036B200000000000000C0FEFFFFFFFFFFFFFFFF52
:1036C200FF7F7F3F1F0F071F7FFFFFF8F8FFFFFFFE
:1036D200FFFFFEF8E0000000010000000000000013
:1036E20000FEFE000000FCFEFC0C06060EFCF800CC
:1036F20000F0F81C0E0606060CFFFFFF0000FEFE9F
:1037020000000000FCFEFC00183C7E66E6CE840051
:103712000006FFFF0606FCFEFC0C0606060000FE85
:10372200FE0000C0F8FC4E4646464E7C7840183CEF
:1037320076E6CECC80000000000000000000000011
:1037420000000000000000000001070F1F1F3F3FA4
:103752003F3F1F0F030000000000000000000000B8
:10376200000F0F0000000F0F0F000000000F0F00EE
:103772000003070E0C18180C060F0F0F0000010FA4
:103782000E0C180C0F070100040E0C180C0F07008A
:1037920000000F0F00000F0F0F0000000000000FCD
:1037A2000F00000007070C0C181C0C060600040E84
:1037B2000C180C0F070000000000000000000000C1
:1037C20000000000000000000000000000000000F7
:1037D20000000000000000000000000000000000E7
:1037E20000000000000000000000000000000000D7
:1037F20000000000000000000000000000000000C7
:1038020000000000000000000000000000000000B6
:1038120000000000000000000000000000000000A6
:103822000000000000000000000000000000000096
:10383200000000000001000000000103070F1F3F0D
:103842007F0080C0E0F0F8FCFE05060708090A03C5
:1038520002010005040E0F0100020004000800101E
:1038620000200040008000000100024E6F6E6500E3
:103872000000000000000000000000000000000046
:1038820000496E70757423310000000000000000D2
:1038920000000000000000496E70757423320000C1
:1038A20000000000000000000000000000496E70EF
:1038B20075742333000000000000000000000000C7
:1038C200000000496E70757423340000000000008F
:1038D200000000000000000000496E70757423357E
:1038E200000000000000000000000000000000498D
:1038F2006E707574233600000000000000000000A6
:10390200000000000000000000C1099409F1095301
:10391200088C097809690900000000F409920CF189
:1039220009F009FF0553087C0854087008640883ED
:103932000853089E069D064A03A4049C077F0712AB
:0639420007B3060D0A00A8
:00000001FF
