:100000000C9420030C943C130C9415130C9448038B
:100010000C9448030C9448030C9448030C94480334
:100020000C9448030C9448030C9448030C94480324
:100030000C9448030C9448030C9448030C94480314
:100040000C94CB120C9448030C9448030C94480372
:100050000C9448030C9448030C9448030C944803F4
:100060000C9463130C94480300000000003E5B4FA7
:100070005B3E3E6B4F6B3E1C3E7C3E1C183C7E3C08
:10008000181C577D571C1C5E7F5E1C00183C180016
:10009000FFE7C3E7FF0018241800FFE7DBE7FF30A6
:1000A000483A060E2629792926407F050507407F14
:1000B00005253F5A3CE73C5A7F3E1C1C08081C1C87
:1000C0003E7F14227F22145F5F005F5F06097F017D
:1000D0007F006689956A606060606094A2FFA29468
:1000E00008047E040810207E201008082A1C080836
:1000F0001C2A08081E101010100C1E0C1E0C303884
:100100003E3830060E3E0E06000000000000005F84
:1001100000000007000700147F147F14242A7F2AA0
:100120001223130864623649562050000807030062
:10013000001C2241000041221C002A1C7F1C2A08AE
:10014000083E080800807030000808080808000011
:1001500060600020100804023E5149453E00427F85
:10016000400072494949462141494D331814127FD4
:100170001027454545393C4A494931412111090774
:100180003649494936464949291E000014000000F5
:1001900040340000000814224114141414140041C7
:1001A00022140802015909063E415D594E7C121184
:1001B000127C7F494949363E414141227F414141BC
:1001C0003E7F494949417F090909013E4141517337
:1001D0007F0808087F00417F41002040413F017FA8
:1001E000081422417F404040407F021C027F7F0470
:1001F00008107F3E4141413E7F090909063E4151B9
:10020000215E7F09192946264949493203017F01A8
:10021000033F4040403F1F2040201F3F4038403FA9
:10022000631408146303047804036159494D4300BF
:100230007F4141410204081020004141417F0402F6
:10024000010204404040404000030708002054548D
:1002500078407F284444383844444428384444286B
:100260007F385454541800087E090218A4A49C78BE
:100270007F0804047800447D40002040403D007F1A
:100280001028440000417F40007C047804787C08FA
:100290000404783844444438FC18242418182424CE
:1002A00018FC7C08040408485454542404043F44B3
:1002B000243C4040207C1C2040201C3C4030403CE2
:1002C00044281028444C9090907C4464544C440042
:1002D00008364100000077000000413608000201A6
:1002E0000204023C2623263C1EA1A161123A404092
:1002F000207A38545455592155557941225454780F
:1003000042215554784020545579400C1E527212A7
:100310003955555559395454545939555454580030
:1003200000457C410002457D420001457C407D1234
:1003300011127DF0282528F07C5455450020545496
:100340007C547C0A097F4932494949323A44444441
:100350003A324A4848303A4141217A3A424020787C
:10036000009DA0A07D3D4242423D3D4040403D3C7D
:1003700024FF2424487E4943662B2FFC2F2BFF09A2
:1003800029F620C0887E0903205454794100004496
:100390007D413048484A32384040227A007A0A0A81
:1003A000727D0D19317D2629292F282629292926F4
:1003B00030484D4020380808080808080808382F39
:1003C00010C8ACBA2F102834FA7F4141417F08147D
:1003D0002A142222142A14085500550055AA55AA99
:1003E00055AAFF55FF55FF000000FF00101010FF39
:1003F00000141414FF001010FF00FF1010F010F094
:10040000141414FC001414F700FF0000FF00FF1484
:1004100014F404FC141417101F10101F101F1414D0
:10042000141F00101010F0000000001F101010101A
:100430001F10101010F010000000FF10101010100E
:1004400010101010FF10000000FF140000FF00FF4C
:1004500000001F10170000FC04F4141417101714E8
:1004600014F404F40000FF00F7141414141414140A
:10047000F700F7141414171410101F101F1414147D
:10048000F4141010F010F000001F101F0000001FE7
:1004900014000000FC140000F010F01010FF10FF1A
:1004A000141414FF141010101F000808081C087FF3
:1004B0007F7F7F7FF0F0F0F0F0FFFFFF0000000093
:1004C00000FFFF0F0F0F0F0F3844443844FC4A4A17
:1004D0004A347E02020606027E027E0263554941CC
:1004E000633844443C04407E201E2006027E020203
:1004F0001E2171210E1C2A492A1C4C7201724C309B
:100500004A4D4D303048784830BC625A463D3E49ED
:100510004949007C4241427C2A2A2A2A2A44445FD3
:10052000444440514A444040444A51400000FF0185
:1005300003E080FF000008086B6B08361236243693
:10054000207020203F2214081422000010100030D8
:1005500040300C03001F01011E00191D1712003C42
:100560003C3C3C000000000000000000230026008E
:100570002900000000080002010000030407000039
:1005800000000000000000000000240027002A00F6
:10059000010204081020408001020408102001021A
:1005A0000408102000000000250028002B0004048F
:1005B000040404040404020202020202030303030B
:1005C0000303206677302E303100312E3030003674
:1005D0006368205343415254204D5558005661449E
:1005E00065526574726F2100417661696C61626C5D
:1005F0006520696E707574733A00434F4D504F53C8
:1006000049544500524742004F7574707574206D0F
:100610006F64653A004E2F4100416374697665202E
:10062000696E7075743A0020362D6368616E6E6570
:100630006C205343415254204D55582000008214E1
:1006400011241FBECFEFD8E0DEBFCDBF16E0A0E083
:10065000B1E0ECE9F5E302C005900D92A631B107D7
:10066000D9F727E0A6E1B6E001C01D92A133B20799
:10067000E1F713E0C0E2D3E004C02197FE010E943D
:10068000C11ACF31D107C9F70E94BF140C94CC1AFC
:100690000C94000028E030E040E8E0912707F0915A
:1006A0002807508190912E07909595239083E09193
:1006B0002507F091260790912D07582F542389F094
:1006C0005081952B9083E0912707F0912807908126
:1006D00050912E07952B9083469521503109E9F6CC
:1006E0000895508190959523EDCF0895089508952C
:1006F000AF92BF92CF92DF92EF92FF920F931F9330
:10070000CF93DF936C017B018B01040F151FEB016D
:100710005E01AE18BF08C017D10759F06991D60124
:10072000ED91FC910190F081E02DC6010995892B96
:1007300079F7C501DF91CF911F910F91FF90EF9055
:10074000DF90CF90BF90AF900895833081F028F470
:10075000813099F08230A9F008958730A9F088306F
:10076000C9F08430B1F4809180008F7D03C0809106
:1007700080008F7780938000089584B58F7784BD43
:10078000089584B58F7DFBCF8091B0008F778093E3
:10079000B00008958091B0008F7DF9CFCF93DF93A3
:1007A000282F30E0F901EE58FA4F8491F901E05713
:1007B000FA4FD491F901E255FA4FC491CC23A1F03C
:1007C00081110E94A503EC2FF0E0EE0FFF1FE85906
:1007D000FA4FA591B491EC91ED2381E090E009F4FA
:1007E00080E0DF91CF91089580E090E0FACFCF9242
:1007F000DF92EF92FF9282E00E94CE036C01990F8C
:10080000EE08FF08C0921606D0921706E09218066E
:10081000F092190680918A0690918B06A0918C0621
:10082000B0918D06C816D906EA06FB06B1F083E042
:100830000E94CE032091A4063091A506092E000C3B
:10084000AA0BBB0BC816D906EA06FB0699F4215081
:1008500031093093A5062093A406C0928A06D0924F
:100860008B06E0928C06F0928D06FF90EF90DF9061
:10087000CF9008952F5F3F4FECCF1F93CF93DF931F
:10088000282F30E0F901EE58FA4F8491F901E05732
:10089000FA4FD491F901E255FA4FC491CC23A9F053
:1008A000162F81110E94A503EC2FF0E0EE0FFF1F21
:1008B000EC55FA4FA591B4918FB7F894EC911111C2
:1008C00008C0D095DE23DC938FBFDF91CF911F91BD
:1008D0000895DE2BF8CFCF93DF9390E0FC01E05733
:1008E000FA4F249182559A4FFC0184918823C9F0D4
:1008F00090E0880F991FFC01EA57FA4FA591B49137
:10090000FC01EC55FA4FC591D49161110DC09FB710
:10091000F8948C91209582238C93888128232883B6
:100920009FBFDF91CF910895623051F49FB7F89443
:100930003C91822F809583238C93E8812E2BEFCFDF
:100940008FB7F894EC912E2B2C938FBFEACF8E307B
:1009500008F08E502091000190E4299F900111240D
:100960008770822B80937C0080917A0080648093D2
:100970007A0080917A0086FDFCCF8091780090917A
:10098000790008953FB7F89480917F069091800692
:10099000A0918106B091820626B5A89B05C02F3F85
:1009A00019F00196A11DB11D3FBFBA2FA92F982F95
:1009B0008827BC01CD01620F711D811D911D42E090
:1009C000660F771F881F991F4A95D1F708958F9258
:1009D0009F92AF92BF92CF92DF92EF92FF924B0124
:1009E0005C010E94C2046B017C010E94C2046C196C
:1009F0007D098E099F09683E734081059105A8F322
:100A000021E0821A9108A108B10888EEC80E83E09F
:100A1000D81EE11CF11C81149104A104B10429F732
:100A2000FF90EF90DF90CF90BF90AF909F908F900E
:100A3000089508950F931F93CF93DF93EC018E8950
:100A4000823009F453C0833009F4ACC0813009F01E
:100A50005CC0EC81FD81E41BF50BAF01421B530B25
:100A600077FD3FC08E819F8168177907D4F557FFC6
:100A700004C0240F351F50E040E08C819D81FA01B5
:100A8000E20FF31F8E179F071CF49C01241B350BEC
:100A90001216130634F5FB0177FD3796A3E0F595A2
:100AA000E795AA95E1F7F695FE2FEE27F795E795DE
:100AB000E40FF51FEB5FFE4F6770772781E090E052
:100AC00001C0880F6A95EAF7482F0130110509F433
:100AD00072C008F47CC02E0F3F1F0230110509F4CC
:100AE00083C0DF91CF911F910F910895AC81BD819B
:100AF000CD01861B970BBC0161507109EE81FF810E
:100B0000E41BF50BAF01421B530B77FDEACF8C8141
:100B10009D81681779072CF757FF04C0240F351FF4
:100B200050E040E08E819F81FA01E20FF31F8E17A3
:100B30009F071CF49C01241B350B121613068CF620
:100B4000922FA42FA695A695A69580E8A89FD001E0
:100B50001124A60FB71FAB5FBE4F477009F457C0F3
:100B600058E0541B452F652F70E0FB01EF5EFA4FF4
:100B70008081251708F0B0C0621B71092FEF30E0AB
:100B800002C0359527956A95E2F782230130110559
:100B9000A9F108F464C00230110509F0A2CF2C912C
:100BA00082272EC0AE81BF81CD01861B970BBC0171
:100BB0006150710955CF2E0F3F1FE217F30709F45B
:100BC00090CF8191DF011197842B8C93F6CF809584
:100BD0002E0F3F1FE217F30709F483CF9191DF0136
:100BE000119798239C93F6CFE217F30709F479CF76
:100BF0008191DF01119784278C93F6CF2C91822B62
:100C00008C93941708F46DCF941BA058BF4F983065
:100C100008F447C00230110531F5FD01892F20810C
:100C200020952083E058FF4F88508830C0F728EF88
:100C3000290F26952695269530E02F5F3F4F369554
:100C4000322F222737952795A20FB31F977009F4EB
:100C500048CFE92FF0E0E75FFA4F808132C08095FE
:100C60002C918223CDCF81E00130110509F080E085
:100C70008195FD01292F8083E058FF4F28502830AF
:100C8000D0F728EF290F26952695269530E02F5F7F
:100C90003F4F3695322F222737952795A20FB31F46
:100CA0009770992309F41DCFE92FF0E0E75FFA4F21
:100CB00080810130110541F058F00230110509F032
:100CC00010CF9C91892702C09C91892B8C9309CFCE
:100CD00080959C918923FACF0130110509F48ECFBC
:100CE00008F4BDCF0230110509F459CF8DCF0F9311
:100CF0001F93CF93DF93EC018E89823009F45EC09D
:100D0000833009F4B5C0813009F067C0AC81BD8182
:100D1000CD01841B950BAC014150510957FD49C0D1
:100D20008C819D81481759070CF043C077FF04C0A0
:100D3000260F371F70E060E08E819F81FB01E20F7C
:100D4000F31F8E179F071CF49C01261B370B1216EE
:100D500013067CF5922FA62FA695A695A69580E85A
:100D6000A89FD0011124A40FB51FAB5FBE4F6770C1
:100D700009F48FC048E0461B642F70E0FB01EF5E72
:100D8000FA4F8081241708F002C1621B71092FEF0E
:100D900030E002C0359527956A95E2F7822301304D
:100DA000110509F46DC008F49CC00230110509F466
:100DB000F8C0DF91CF911F910F910895EC81FD81D3
:100DC000E61BF70BAE81BF81CD01841B950BAC01F7
:100DD00041505109BF01621B730B57FDEACF8E8151
:100DE0009F81481759072CF777FF04C0260F371F3C
:100DF00070E060E08C819D81FB01E20FF31F8E1794
:100E00009F071CF49C01261B370B121613068CF649
:100E1000FA0157FD379693E0F595E7959A95E1F736
:100E2000F695FE2FEE27F795E795E60FF71FEB5F98
:100E3000FE4F4770552781E090E001C0880F4A952A
:100E4000EAF7482F0130110509F488C008F492C070
:100E50002E0F3F1F0230110509F0ABCFE217F30749
:100E600009F4A7CF8191DF01119784278C93F6CFE6
:100E7000EE81FF81E61BF70BBF01621B730B4ECFA8
:100E80002C91822B8C93941708F493CF941BA05829
:100E9000BF4F983008F447C00230110531F5FD010D
:100EA000892F208120952083E058FF4F885088307B
:100EB000C0F728EF290F26952695269530E02F5F5D
:100EC0003F4F3695322F222737952795A20FB31F14
:100ED000977009F46ECFE92FF0E0E75FFA4F808159
:100EE00032C080952C918223CDCF81E00130110555
:100EF00009F080E08195FD01292F8083E058FF4FA4
:100F000028502830D0F728EF290F269526952695CA
:100F100030E02F5F3F4F3695322F222737952795A8
:100F2000A20FB31F9770992309F443CFE92FF0E084
:100F3000E75FFA4F80810130110541F058F002302F
:100F4000110509F036CF9C91892702C09C91892B0D
:100F50008C932FCF80959C918923FACF2E0F3F1F22
:100F6000E217F30709F425CF8191DF011197842B54
:100F70008C93F6CF80952E0F3F1F2E173F0709F455
:100F800018CF9191DF01119798239C93F6CF0130F0
:100F9000110509F475CF08F4A4CF0230110509F04A
:100FA00075CF2C9182276ECFDC0177FD67C0189634
:100FB0008D919C911997681779070CF05FC057FDC8
:100FC0005DC01A968D919C911B97481759070CF09C
:100FD00055C056968C9156978230B9F0833041F1C6
:100FE000813049F414968D919C91841B950BAB0133
:100FF000BC01615071092130310521F108F43FC075
:101000002230310509F458C008951496ED91FC91F1
:101010001597E61BF70BBF016150710916968D916C
:101020009C91FC01E41BF50BAF0141505109E3CF4A
:1010300016968D919C91861B970BBA01AC0141507D
:101040005109D9CFFA0157FD3796A3E0F595E795F9
:10105000AA95E1F7F695FE2FEE27F795E795E60FAF
:10106000F71FEB5FFE4F4770552721E030E001C0CE
:10107000220F4A95EAF78081822B80830895FA0136
:1010800057FD379623E0F595E7952A95E1F7F69514
:10109000FE2FEE27F795E795E60FF71FEB5FFE4F64
:1010A0004770552781E090E001C0880F4A95EAF724
:1010B000809590818923E1CFFA0157FD379683E02F
:1010C000F595E7958A95E1F7F695FE2FEE27F795CA
:1010D000E795E60FF71FEB5FFE4F4770552721E0BE
:1010E00030E001C0220F4A95EAF780818227C5CF00
:1010F0000895FC016370668B848195812681378118
:10110000613039F0633029F09187808733872287F7
:101110000895318720879387828708952F923F9281
:101120004F925F926F927F928F929F92AF92BF92F7
:10113000CF92DF92EF92FF920F931F93CF93DF93A3
:10114000CDB7DEB76A970FB6F894DEBF0FBECDBF3E
:101150009A8F898F7A8369834A01D22E18870F83E9
:101160003701BC2CDC0159962D913C915A972115E1
:10117000310509F015C118968D919C911997681742
:1011800079070CF0D7C11A968D919C914817590791
:101190000CF0D0C14C2C512CB6E0CB9E600D711DD3
:1011A00011247C876B87161617060CF0C3C1EA2D35
:1011B000F0E0FA87E98793E0EE0FFF1F9A95E1F7D9
:1011C000F88BEF87CF01840F951F181619060CF0C6
:1011D000B1C1A98DBA8D58968C91811104C0BFEA16
:1011E000BD1508F4D394A98DBA8DED91FC9111979A
:1011F0000284F385E02DCD010995B5E0DB9EC001A9
:101200001124E981FA81FC83EB83312C212C9C0190
:1012100028593F4F388F2F8B4A2D50E05E8B4D8BD6
:10122000EF89F88DE20DF31D44919E828D82D12CC1
:10123000C12C69817A81620D731D7A8B698B842F31
:1012400090E09C8B8B8BE98DFA8DA081B18140FF62
:1012500082C0F1E0BF126FC0AF126DC01C96ED915D
:10126000FC912F813885A4014C0D5D1D69897A8917
:10127000898D9A8D0995EB89FC89F595E7954E2F17
:101280005FEFC51AD50A6D817E818D899E89680FB1
:10129000791F7E836D8398E0C916D10481F6AFEF84
:1012A0002A1A3A0AEB81FC81E40DF51DFC83EB83DD
:1012B000F5E02F16310409F0B3CF2F8138852615BC
:1012C0003705B9F0A98DBA8DED91FC91B1E0BB1253
:1012D00057C0AB1255C069817A816B5F7F4F008820
:1012E000F189E02D830128E030E0A401898D9A8DF9
:1012F0000995A98DBA8DED91FC9111970688F78912
:10130000E02DCD016A960FB6F894DEBF0FBECDBFBB
:10131000DF91CF911F910F91FF90EF90DF90CF90D1
:10132000BF90AF909F908F907F906F905F904F9005
:101330003F902F9009941E96ED91FC91EF80F884D8
:1013400009851A8592014D815E816B817C81898D31
:101350009A8D099590CF2F8138852615370509F488
:101360008ACF31E0B31207C0A31205C01C96ED91DD
:10137000FC91930178CF1E96ED91FC917301E0CF23
:101380006B857C85641975090684F785E02D7301EA
:101390000F8518899201A401898D9A8D0995A9CF8D
:1013A000F90134969491329745915491D91AB7E046
:1013B000DB9E400D511D1124F901259134913C8B88
:1013C0002B8BFA0125903490FA0132967490319665
:1013D0003491398B329664903196449041E04C15AB
:1013E00018F04A1508F07FC0662D062C000C770B0C
:1013F0007C836B83842D042C000C990B9E838D833E
:10140000A98DBA8DED91FC9111970284F385E02DA1
:10141000CD010995512CD12CC12CEA2DF0E0FA8791
:10142000E9872B2D30E03C872B87A401440D511D0B
:1014300047FC5A95588F4F8B69817A81660D711DD3
:1014400067FC7A957E876D877989C71608F051CF3A
:101450002C2D30E04D815E81420F531FA985BA8546
:101460004A9FC0014B9F900D5A9F900D1124FC0183
:10147000E80DF91DF88BEF87852D612C4F89588D6C
:10148000420F531F5E8B4D8B671408F050C04424ED
:101490004394480E877041F4C1010196EB89FC89A1
:1014A000E20DF31DD4901C01D7FE19C0A98DBA8D91
:1014B000ED91FC91662D70E0B1E0BB1219C0AB124A
:1014C00017C02D853E85620F731F0484F585E02DBE
:1014D0002F8138854D895E89898D9A8D0995DD0C1E
:1014E0006394842DD1CF1E821D821C821B8288CFE3
:1014F0004B815C81640F751FAB85BC856A9FC00101
:101500006B9F900D7A9F900D112469817A81680FED
:10151000791F0684F785E02DEF80F88409851A8508
:101520009D014F855889898D9A8D0995D8CF570C83
:10153000C3948ACF6A960FB6F894DEBF0FBECDBFB4
:10154000DF91CF911F910F91FF90EF90DF90CF909F
:10155000BF90AF909F908F907F906F905F904F90D3
:101560003F902F9008958F929F92AF92CF92EF92DB
:10157000FF920F931F93CF93DF93EC01262F898D5A
:101580009A8D009709F051C06A30D1F41D861C86EF
:101590008D8948E0849F900111248E859F85820F5C
:1015A000931F9F878E8781E090E0DF91CF911F91FD
:1015B0000F91FF90EF90CF90AF909F908F900895F4
:1015C0006D3089F3CC88AD888F898823C1F08C85F4
:1015D0009D8536E0C39E800D911D11244885598557
:1015E0004817590764F44E855F851D861C8638E0D0
:1015F000A39EC0011124840F951F9F878E87EA88C0
:10160000FB88088919894E855F856C857D85CE01AB
:101610000E948E082C898C859D8546E0249F800D34
:10162000911D11249D878C87BECF6A3069F41D8679
:101630001C86FC013896E4912D898E859F85E29F5A
:10164000800D911D1124ADCF6D3009F4ACCFFC019C
:1016500034963491631708F4A6CF3296E491E617D6
:1016600008F4A1CFFC01329685909490462F431B3D
:10167000342F47E0349F800C911C1124F4013296E2
:1016800034913196E4913323A9F1EE2399F1CC887A
:10169000F4013596E491AD884F89442301F10E2E73
:1016A000000CFF0BE30FF11DCE9EA001CF9E500D4D
:1016B00011246C857D85460F571F688579856417D1
:1016C00075076CF44E855F851D861C86FC01389677
:1016D000E491AE9E400D511D11245F874E87EA882C
:1016E000FB88088919894E855F856C857D85CE01CB
:1016F0000E948E08F4013496E4912C898C859D8596
:10170000E29F800D911D11248DCF0F931F93CF93D6
:10171000DF938C01D0E0C0E0F801EC0FFD1F649175
:10172000662341F082E097E00E94B30A892B11F012
:101730002196F2CFCE01DF91CF911F910F910895A5
:101740006F927F928F929F92AF92BF92CF92DF92D1
:10175000EF92FF920F931F93CF93DF93EC016B01F6
:101760005A0139014801E881F9810284F385E02DAD
:101770000995E881F9810288F389E02D87019301B9
:10178000A501B601CE010995A501480D591D41508D
:101790005109E881F9810288F389E02D9301B601AE
:1017A000CE010995E881F9810088F189E02D940145
:1017B000A501B601CE010995C60CD71CB601615032
:1017C0007109E881F9810088F189E02D9401A50172
:1017D000CE010995E881F9810688F789E02DCE01CF
:1017E000DF91CF911F910F91FF90EF90DF90CF90FD
:1017F000BF90AF909F908F907F906F9009946F9261
:101800007F928F929F92AF92BF92CF92DF92EF9290
:10181000FF920F931F93CF93DF935C01EB016A015B
:10182000490138018701DC01ED91FC9162177307D2
:1018300019F5641675062CF0962D872D3A01C92EE0
:10184000D82E9601261937092F5F3F4F048CF58D4E
:10185000E02DA301BE01C5010995DF91CF911F9134
:101860000F91FF90EF90DF90CF90BF90AF909F903F
:101870008F907F906F9008954615570591F4261725
:10188000370724F0892D4B01C22FD82F9E0128192C
:1018900039092F5F3F4F068CF78DE02DA601B4016B
:1018A000DACF0284F385E02D0995D501ED91FC9105
:1018B0000488F589E02D83019401A601BE01C501CC
:1018C0000995D501ED91FC910688F789E02DC501B8
:1018D000DF91CF911F910F91FF90EF90DF90CF900C
:1018E000BF90AF909F908F907F906F900994EF92F0
:1018F000FF920F931F93DC011A960D911C911B9779
:1019000018962D913C911997ED91FC9100A0F1A1B1
:10191000E02D7B0150E040E070E060E009951F9110
:101920000F91FF90EF9008954F925F926F927F9288
:101930008F929F92AF92BF92CF92DF92EF92FF92DF
:101940000F931F93CF93DF936C012B015A01390141
:101950004801DC01ED91FC910284F385E02D0995AD
:10196000E201640C751CD601ED91FC91C615D705FA
:101970005CF40088F189E02D87019401A501BE0186
:10198000C60109952196EFCF0688F789E02DC6019B
:10199000DF91CF911F910F91FF90EF90DF90CF904B
:1019A000BF90AF909F908F907F906F905F904F907F
:1019B00009948F929F92AF92BF92CF92DF92EF9253
:1019C000FF920F931F93CF93DF93EC015B014A01CA
:1019D0006901E881F9810284F385E02D099595017B
:1019E0002C0D3D1D21503109E881F9810488F589CC
:1019F000E02D78018401A401B501CE010995E881AB
:101A0000F9810688F789E02DCE01DF91CF911F91F2
:101A10000F91FF90EF90DF90CF90BF90AF909F908D
:101A20008F9009948F929F92AF92BF92CF92DF9244
:101A3000EF92FF920F931F93CF93DF93EC015B0123
:101A40004A0169017801E881F9810284F385E02D7A
:101A50000995C80CD91C860101501109E881F9814A
:101A60000488F589E02D9501A401B501CE01099501
:101A7000E881F9810688F789E02DCE01DF91CF91C9
:101A80001F910F91FF90EF90DF90CF90BF90AF909C
:101A90009F908F900994EF92FF920F931F93DC0118
:101AA000ED91FC9100A0F1A1E02D09951F910F91FE
:101AB000FF90EF9008950F931F93DC01ED91FC913F
:101AC000068CF78DE02D09951F910F9108950F93C6
:101AD0001F93DC01ED91FC91048CF58DE02D0995AF
:101AE0001F910F910895DC01ED91FC910084F18527
:101AF000E02D09942F923F924F925F926F927F92C6
:101B00008F929F92AF92BF92CF92DF92EF92FF920D
:101B10000F931F93CF93DF937C016B01EA0181E068
:101B200090E05C01A41AB50A66247724641A750A49
:101B3000660C771C10E000E088248394912C822F9F
:101B40008470582E822F8270482E822F8870382EF3
:101B50002170222E0C171D070CF079C0B7FC06C0AF
:101B6000219782E0680E711CA60CB71C0F5F1F4FF7
:101B700082E0880E911CA80CB91C5520C1F021E010
:101B800030E0AE014C0D5D1DB701600F711F82E0AA
:101B900097E00E94730D21E030E0A601400F511F35
:101BA000BE016E0D7F1D82E097E00E94730D442000
:101BB000C1F021E030E0A6014C1B5D0BB701600FC6
:101BC000711F82E097E00E94730D21E030E0A601D2
:101BD000401B510BBE016E0D7F1D82E097E00E94FD
:101BE000730D3320C1F021E030E0A601400F511FFA
:101BF000B7016C1B7D0B82E097E00E94730D21E022
:101C000030E0AE014C0D5D1DB701601B710B82E031
:101C100097E00E94730D222009F49CCF21E030E070
:101C2000A601401B510BB7016C1B7D0B82E097E0B6
:101C30000E94730D21E030E0A6014C1B5D0BB70143
:101C4000601B710B82E097E00E94730D83CFDF91E0
:101C5000CF911F910F91FF90EF90DF90CF90BF90A9
:101C6000AF909F908F907F906F905F904F903F903C
:101C70002F9008952F923F924F925F926F927F9292
:101C80008F929F92AF92BF92CF92DF92EF92FF928C
:101C90000F931F93CF93DF9300D000D000D0CDB728
:101CA000DEB73C016A013E832D83FC82EB82580142
:101CB000A41AB50AB7FE03C0B194A194B1088D80EF
:101CC0009E80861A970A97FE03C09194819491088A
:101CD0008A149B045CF0902F812F0D811E819D83BF
:101CE0008E839C2D8D2D6B01692F782F0C151D0572
:101CF0005CF09D818E817E836D83692F782F902F7C
:101D0000812F8601C92ED82E1601201A310A2B01E7
:101D10002D813E81421A530A57FE03C051944194CB
:101D20005108710137FE03C03FEFE31AF30AF5943F
:101D3000E7948D819E81861797075CF5A1E0B0E05E
:101D4000BA83A983C016D1064CF1D301ED91FC9161
:101D50000484F585E02D2B813C81A8016D817E8175
:101D60008A149B041CF04D815E81B801C301099562
:101D7000E418F508F7FE0AC02D813E8189819A8119
:101D8000280F391F3E832D83E20CF31C0F5F1F4F7A
:101D9000D9CF2FEF3FEF3A832983D4CF26960FB6C2
:101DA000F894DEBF0FBECDBFDF91CF911F910F9191
:101DB000FF90EF90DF90CF90BF90AF909F908F906B
:101DC0007F906F905F904F903F902F90089508956F
:101DD00020915B06260F3327331F21323105ECF4A7
:101DE0002091CC06FC0190E080E0243069F082E094
:101DF0000895A0915B062191AC01455C594FA40F59
:101E0000B52FB11D2C930196861798F380915B0630
:101E1000680F60935B0680E0089581E0089510925A
:101E2000CC0681E08093CB061092A60661E082E1A9
:101E30000E943D0461E083E10E943D04E9EBF0E093
:101E400080818E7F808380818D7F808388E48093F2
:101E5000B80085E48093BC000895CF93DF9391E0B0
:101E600090933A068823B9F0C091B800D091BA0097
:101E70008091BC008A7B8093BC0060E082E10E947C
:101E80003D0460E083E10E943D040E940F0FD09367
:101E9000BA00C093B800DF91CF910895CF92DF923E
:101EA000EF92FF920F931F93CF93DF93D091F5069C
:101EB00081E0D13208F09CC0C091F4060E94C204B7
:101EC0006B017C018091CC0681116CC082E0809313
:101ED000CC0681E08093CB068FEF8093CA061092E8
:101EE000C906D093C806A4EDB6E0E8EAF6E080E0C3
:101EF000D8138DC01092A7068091A706CC0FC82BCF
:101F0000C093A7068091A606813009F084C0109284
:101F1000A6060E94C2046B017C018091A7068093F3
:101F2000BB008091CE069091CF06A091D006B091D3
:101F3000D106892B8A2B8B2BA1F00E94C204009121
:101F4000CE061091CF062091D0063091D1066C19A3
:101F50007D098E099F09061717072807390708F416
:101F600042C08091BC0083FDD8CF85EC8093BC003B
:101F70000E94C2046B017C018091CC06823009F47E
:101F80004CC08091CA068F3F09F469C08091CA068F
:101F9000803209F466C08091CA06803309F463C0B8
:101FA00084E026C08091CE069091CF06A091D00605
:101FB000B091D106892B8A2B8B2B09F483CF0E94F9
:101FC000C2040091CE061091CF062091D006309128
:101FD000D1066C197D098E099F0906171707280776
:101FE000390708F06FCF8091CD060E942D0F85E054
:101FF0001092D3061092F5061092D206DF91CF917F
:102000001F910F91FF90EF90DF90CF9008959D91D9
:1020100091938F5F6DCF85EEA9CF8091CE06909181
:10202000CF06A091D006B091D106892B8A2B8B2B9D
:1020300009F4A2CF0E94C2040091CE061091CF06EF
:102040002091D0063091D1066C197D098E099F0927
:10205000061717072807390708F08ECFC4CF80E08E
:10206000C7CF82E0C5CF83E0C3CFE09188068091DF
:102070008706E81730F4F0E0E65EF94F808190E0E3
:1020800008958FEF9FEF08959091880680918706BD
:102090002FEF3FEF981748F4E92FF0E0E65EF94F95
:1020A000208130E09F5F90938806C9010895809158
:1020B000870690918806891B990B0895CF92DF922D
:1020C000EF92FF920F931F93CF93DF937C01CB018D
:1020D0008A012091D206222389F0EB016B01C40E04
:1020E000D51ECC15DD0569F06991D701ED91FC9104
:1020F0000190F081E02DC7010995F3CF642F0E9474
:10210000E80EC801DF91CF911F910F91FF90EF90E2
:10211000DF90CF900895CF93DF931F92CDB7DEB7B6
:1021200069832091D2062223F9F02091F50620320E
:1021300058F021E030E0FC013383228390E080E01E
:102140000F90DF91CF9108958091D306E82FF0E0B2
:10215000EC52F94F998190838F5F8093D3068093DF
:10216000F50681E090E0ECCF61E0CE0101960E949F
:10217000E80EF7CFCF93C82F80911F078F3FB1F1A3
:10218000E0912907F0912A07808190912F07892BF0
:102190008083E0912B07F0912C079081809130078C
:1021A000809589238083E0912907F0912A07908107
:1021B00080912F078095892380838091240788232D
:1021C00089F0CEBD00000DB407FEFDCF8EB5E091C5
:1021D0002907F0912A07808190912F07892B80830E
:1021E000CF9108958C2F0E944A03F1CF80911D0753
:1021F00091E09093D2068093F4061092D306109249
:10220000F50660E086EF96E00E948B106C2F86EF5B
:1022100096E00E948B10CF910C944E0F8F929F925C
:10222000AF92BF92CF92DF92EF92FF920F931F93E4
:10223000CF93DF9380E00E94BA1080E10E94BA1031
:1022400080E40E94BA1080911F078F3F09F46BC091
:1022500030EBF32ED0E0C0E08F2D0E94BA1082E068
:102260000E94BA1080E10E94BA1010E000E0CE0196
:102270008B5F9E4F6C01E0912907F0912A078081C6
:1022800090912F07892B8083E0912B07F0912C07E9
:10229000808190913007892B8083E0912907F0910C
:1022A0002A07908180912F0780958923808356018A
:1022B000A00EB11E20E1E22EF50181915F01909107
:1022C0002407992369F18EBD00000DB407FEFDCFF0
:1022D0008EB5EA94E110F0CFE0912907F0912A073A
:1022E000808190912F07892B8083005F1F4F0038DA
:1022F000110509F0C0CFC058DF4FF394C115F4E0C9
:10230000DF0709F0A9CFDF91CF911F910F91FF90C7
:10231000EF90DF90CF90BF90AF909F908F900895F7
:102320000E944A03D6CF9090B8008CE08093B8000A
:1023300090EBF92ED0E0C0E0882483948F2D0E948A
:10234000BA1082E00E94BA1080E10E94BA1010E038
:1023500000E0CE018B5F9E4F5C0180911D07809253
:10236000D2068093F4061092D3061092F50660E42C
:1023700086EF96E00E948B106501C00ED11E80E1B1
:10238000E82EF60161916F0186EF96E00E948B10B6
:10239000EA94E110F6CF0E944E0F005F1F4F003805
:1023A0001105D9F6C058DF4FF394C115F4E0DF07EB
:1023B00029F69092B800A7CF90E080E00895815070
:1023C000990BFC01EE56F94F2081222339F0875EEC
:1023D0009A4F60E0FC0180810C943D040895909137
:1023E0009E06911104C090919A06992399F0973016
:1023F00008F096E0882381F080E0E1E0E80FE1500A
:10240000FF0BEE56F94F863049F08F5F2191222362
:10241000D1F3089591E0EECF892FEFCF892F089562
:10242000882341F0E82FF0E0E85EFA4F61E0808118
:102430000C943D040895FC0101900020E9F73197C8
:10244000AF01481B590BBC0182E097E00C94780364
:102450008F929F92AF92BF920F931F93CF93DF9370
:10246000CDB7DEB7A1970FB6F894DEBF0FBECDBFD4
:1024700019A2423008F44AE08E010F5D1F4F842EEE
:10248000912CB12CA12CA50194010E94901AE62F49
:10249000B901CA01EA30F4F4E05DD801EE938D0190
:1024A000232B242B252B79F790E080E0109719F04F
:1024B000CD010E941B12A1960FB6F894DEBF0FBE8D
:1024C000CDBFDF91CF911F910F91BF90AF909F90A3
:1024D0008F900895E95CE1CFCF93DF930E94850B45
:1024E000EC0183E196E00E941B128C0F9D1FDF918F
:1024F000CF910895E5E0F1E080E094E0DF019C01F8
:102500001D9221503040E1F7E2E0F7E081E0848B5A
:10251000858B21E030E0318B208B138A128A808FEB
:1025200008950E94C71A85ED8093BC008091CE0665
:102530009091CF06A091D006B091D1060796A11D2B
:10254000B11D23E0B695A795979587952A95D1F764
:102550002091BC0024FD03C01092CC060895409148
:10256000CE065091CF066091D0067091D106452BD2
:10257000462B472B69F30097A105B10541F025E3F0
:102580002A95F1F700000197A109B109E1CF8091E7
:10259000CD060C942D0F1F920F920FB60F9211249F
:1025A0002F933F938F939F93AF93BF9380918E060A
:1025B00090918F06A0919006B091910630917E0681
:1025C00023E0230F2D3758F50196A11DB11D20934F
:1025D0007E0680938E0690938F06A0939006B0930C
:1025E000910680917F0690918006A0918106B0911E
:1025F00082060196A11DB11D80937F0690938006EF
:10260000A0938106B0938206BF91AF919F918F9165
:102610003F912F910F900FBE0F901F90189526E8B5
:10262000230F0296A11DB11DD2CF1F920F920FB69C
:102630000F9211242F933F934F935F936F937F9348
:102640008F939F93AF93BF93EF93FF93E091030119
:10265000F09104010995FF91EF91BF91AF919F9186
:102660008F917F916F915F914F913F912F910F903B
:102670000FBE0F901F9018951F920F920FB60F92DA
:1026800011242F933F934F935F936F937F938F9377
:102690009F93AF93BF93EF93FF93E0910101F0916C
:1026A00002010995FF91EF91BF91AF919F918F9199
:1026B0007F916F915F914F913F912F910F900FBE3E
:1026C0000F901F9018951F920F920FB60F92112422
:1026D0002F933F934F935F936F937F938F939F932A
:1026E000AF93BF93EF93FF938091B900887F8036BB
:1026F00009F44AC0F0F5883209F4A7C018F5803112
:1027000009F49BC0B8F4882309F4F9C0883009F4AF
:1027100094C0FF91EF91BF91AF919F918F917F9165
:102720006F915F914F913F912F910F900FBE0F903E
:102730001F901895883109F488C0803251F7809332
:10274000CA0614C0803409F49DC040F48033B9F344
:102750008833F9F68093CA0685ECB0C0803509F459
:1027600085C0883509F496C0883499F60E94931282
:10277000D0CF883909F48CC038F5883729F050F467
:10278000883611F0803729F683E08093CC061092CA
:102790007D0657C0883809F47BC0803919F080382D
:1027A00009F0B7CF80917D06803208F071C0E091CA
:1027B0007D0681E08E0F80937D068091BB00F0E066
:1027C000E35AF94F80833DC0803B39F0E0F4803A12
:1027D00009F479C0883A09F09CCF84E08093CC0654
:1027E00010925C0610925B06E0918506F0918606D9
:1027F000099580915B0681110FC081E080935B0693
:1028000010923B0609C0803C09F4A6CF883C09F42D
:10281000A3CF883B09F07DCFE0915C0681E08E0F6D
:1028200080935C06F0E0E55CF94F80818093BB000B
:1028300090915C0680915B0629C08091A7068093E9
:10284000BB0085EC8093BC0064CF9091C906809159
:10285000C806981758F5E091C90681E08E0F80935D
:10286000C906F0E0E855F94F8081E9CFE091C9064B
:1028700081E08E0F8093C9068091BB00F0E0E8559F
:10288000F94F80839091C9068091C8069817C8F2C5
:1028900085E8D8CFE091C90681E08E0F8093C90604
:1028A0008091BB00F0E0E855F94F80838091CB0622
:1028B00081115CCF81E08093A60684EA8093BC00FE
:1028C0001092CC0626CF85EC8093BC001092CC06EB
:1028D00080917D06803230F4E0917D06F0E0E35A8D
:1028E000F94F108260917D0670E0E0918306F091CF
:1028F00084068DE596E0099510927D060ACF109228
:10290000CA0634CFE6EFF6E01382128288EE93E037
:10291000A0E0B0E084839583A683B78389ED95E03A
:1029200091838083E2E0F7E01382128220E830E0B6
:102930003583248380E490E09783868331872087E2
:1029400093878287168A158614861786168681E0F5
:10295000858B848B2FEF3FEF338B228B318B208B3A
:10296000878B108E128E118E8BEE95E09183808373
:102970008FEF858F81A3878F868F80A308957894AA
:1029800084B5826084BD84B5816084BD85B5826074
:1029900085BD85B5816085BD80916E008160809325
:1029A0006E0010928100809181008260809381008E
:1029B000809181008160809381008091800081609E
:1029C000809380008091B10084608093B1008091F9
:1029D000B00081608093B00080917A008460809321
:1029E0007A0080917A00826080937A0080917A00E8
:1029F000816080937A0080917A00806880937A0069
:102A00001092C1001AB817B814B809E115E0C0E077
:102A100061E0D8018D918D010E946B04CF5F8C2FF6
:102A20000E941012C630A1F71092000180E00E94AF
:102A3000A704BC01990F880B990B611571058105DD
:102A4000910511F00E94551A82E080931E078CE3D5
:102A500080931D0780911F078F3F09F43AC361E0FF
:102A6000809121070E946B0461E0809123070E94FE
:102A70006B0480912307082E000C990BFC01E25592
:102A8000FA4FE491F0E0EE0FFF1FEC55FA4F25915D
:102A9000349130932A0720932907FC01E057FA4F1D
:102AA000E491E0932F0780912107082E000C990BE9
:102AB000FC01E255FA4FE491F0E0EE0FFF1FEC55F8
:102AC000FA4F2591349130932C0720932B07FC016A
:102AD000E057FA4FE491E093300780912407811189
:102AE0003EC061E080911F070E946B0461E080910D
:102AF00020070E946B0480912007082E000C990B80
:102B0000FC01E255FA4FE491F0E0EE0FFF1FEC55A7
:102B1000FA4F259134913093280720932707FC0121
:102B2000E057FA4FE491E0932E0780911F07082E9B
:102B3000000C990BFC01E255FA4FE491F0E0EE0F26
:102B4000FF1FEC55FA4F25913491309326072093BF
:102B50002507FC01E057FA4FE491E0932D0780919F
:102B60002407882309F439C0CFB7F89480918906E7
:102B7000811127C0E8EBF5E08491EAE9F5E0949152
:102B8000E82FF0E0EE0FFF1FEA57FA4FA591B4913E
:102B9000EC91E92321F461E08AE00E943D0461E0C8
:102BA0008AE00E946B048CB580618CBD8CB580641A
:102BB0008CBD61E08DE00E946B0461E08BE00E94BF
:102BC0006B04809189068F5F80938906CFBF8CB597
:102BD0008C7F8CBD8DB581608DBD61E080912207B9
:102BE0000E946B0461E0809122070E943D0461E035
:102BF00070E080E090E00E94E70460E080912207AE
:102C00000E943D046AE070E080E090E00E94E704EA
:102C100061E0809122070E943D048EEA0E94BA1072
:102C200085ED0E94BA1080E80E94BA1088EA0E94DE
:102C3000BA108FE30E94BA1083ED0E94BA1080E0B0
:102C40000E94BA1080E40E94BA108DE80E94BA1067
:102C500084E10E94BA1080E20E94BA1080E00E94D3
:102C6000BA1081EA0E94BA1088EC0E94BA108AED6C
:102C70000E94BA1082E10E94BA1081E80E94BA1044
:102C80008FEC0E94BA1089ED0E94BA1081EF0E9469
:102C9000BA108BED0E94BA1080E40E94BA1084EA48
:102CA0000E94BA1086EA0E94BA108FEA0E94BA10F7
:102CB00060E082E00E946B0460E083E00E946B04AD
:102CC00062E084E00E946B0482E00E94CE03092E41
:102CD000000CAA0BBB0B80938A0690938B06A093E3
:102CE0008C06B0938D0627EF33E0309302012093DA
:102CF0000101809169008C7F816080936900E89A6E
:102D0000309304012093030180916900837F8460E4
:102D100080936900E99AE5E0F1E080E094E0DF016A
:102D20009C011D9221503040E1F70E947A12C0E3CD
:102D3000D0E0D0930F07C0930E0780E190E090930E
:102D40001107809310078DED95E00E946C12D093CF
:102D50000F07C0930E078CE190E0909311078093CA
:102D600010078FEC95E00E946C12D0930F07C09370
:102D70000E0788E290E090931107809310078AEC89
:102D800095E00E94850B82EC95E00E946C1201E0B8
:102D900010E023E130E044E150E066E070E082E0E2
:102DA00097E00E945B0D23E130E04AE250E066E0EC
:102DB00070E082E097E00E945B0D23E130E046E1A5
:102DC00050E064E070E082E097E00E94670D23E14C
:102DD00030E046E150E06AE170E082E097E00E9476
:102DE000670D21E042E050E066E170E086E090E0AF
:102DF0000E947A0D22E042E050E066E170E088E156
:102E000090E00E947A0D24E042E050E068E270E039
:102E100088E190E00E947A0D28E042E050E068E20C
:102E200070E086E090E00E947A0DC5E0D0E0EE24EC
:102E3000E394F12C02E110E09E0140E150E0BE017C
:102E400082E097E00E94FF0B0EE210E09E014CE250
:102E500050E0BE0182E097E00E94FF0B6E0130E17E
:102E6000C30ED11C860122E030E0A60170E060E0D4
:102E700082E097E00E94FF0B2EE130E0A6016CE1BA
:102E800070E082E097E00E94FF0B2496CD31D105DF
:102E900071F60E940E1160ED77E080E090E00E94F4
:102EA000E704D0E0C0E0EE24E394F12C00E410E06D
:102EB00026E030E050E040E0BE0182E097E00E9472
:102EC000940C0E940E116E0186E0C80ED11C94E88D
:102ED000C916D10409F014C1E5E0F1E080E094E006
:102EE000DF019C011D9221503040E1F70E940E113C
:102EF00066246A94762C33243394C1E0D0E0409069
:102F0000A3061092A30681E10E94CE0321E0892B43
:102F100009F420E02093980630E030939C0620933B
:102F20009B0657E2E52E55E0F52E05E215E0552407
:102F30005394D7011C968D909C9035E0232EC12C84
:102F400044E0D42E5401B8E1AB1AB108F8018081F5
:102F50000E94A7048A159B0508F4E1C048968115D4
:102F6000F4E09F0714F08FEF93E08C159D050CF4AF
:102F70006C0165E070E080E090E00E94E7042A9434
:102F80002110E4CF80919B0690919C06B090A306FF
:102F9000252D2150330BD901A15EBA4F44E0450DD8
:102FA000960128213921ED91F0E0EE56F94F51E0DC
:102FB0008216930609F050E050838216930619F4A6
:102FC00088299929B394880C991C53945412AAC047
:102FD00090939C0680939B06B092A30686E295E0B0
:102FE0008017910741F034E0E30EF11C0F5F1F4F93
:102FF00087E058129ECFB110A0C080919A060E941F
:10300000101210929D0610929E0610929A068091C0
:10301000A4069091A506892B09F4B4C091E09B15F4
:1030200008F0ACC02FB7F89480918E0690918F066F
:10303000A0919006B09191062FBF40919F065091AC
:10304000A0066091A1067091A206841B950BA60BA9
:10305000B70B893C9105A105B10508F48FC02FB7C6
:10306000F89480918E0690918F06A0919006B09171
:1030700091062FBF80939F069093A006A093A10670
:10308000B093A2068091A4069091A5061816190681
:103090000CF44FC1892B09F451C180919E06811116
:1030A00005C080919A06882309F458C1873008F03A
:1030B00086E0EFEFE80FF0E0EE56F94F982F9130F1
:1030C00009F44EC1915022912223C9F390939E0698
:1030D00035C110928806109287061092D30610927E
:1030E000F5060E940F0F86E793E090938606809383
:1030F000850687E793E090938406809383066DCDE1
:10310000F12CE12C00E410E026E030E050E040E05B
:10311000BE0182E097E00E94940CE601C4CE90E0EC
:1031200080E023CF36E0351508F03ACF90939C0627
:1031300080939B06B092A3065ECF4B1409F467CF31
:1031400080919A06882349F0E82FF0E0EF56F94F76
:10315000908191115CCF0E94101210929E061092E5
:103160009A0681E00E94EF11882309F450CF8093E2
:103170009E0680939A060E94DF1149CF1092A50601
:103180001092A40600919B0610919C060615170547
:1031900029F480919D06882309F4A6C00E947A1222
:1031A0001092130710921207D0931507C0931407BB
:1031B00010920F0710920E0710921107109210072D
:1031C00087E296E00E94850BD0931307C093120705
:1031D000109215071092140710920F0710920E0705
:1031E000A0E1B0E0B0931107A093100789E196E049
:1031F0000E94850B60919A06662309F4B3C070E0C3
:1032000090E080E04AE00E94281220919D06809183
:10321000990682FB882780F98325211101C081E06E
:1032200090E0909313078093120710921507109265
:10323000140710920F0710920E07E8E1F0E0F093E8
:103240001107E093100780919E06211102C0809122
:103250009A06F6E18F9FC0011124855C9A4F0E9467
:103260001B12D0931307C0931207109215071092E8
:10327000140710920F0710920E0720E230E03093EF
:1032800011072093100788E096E00E94850B80913B
:103290009806882309F46BC084E096E00E94850BB1
:1032A000D0931307C09312071092150710921407BA
:1032B00010920F0710920E0780E390E09093110791
:1032C0008093100788EE95E00E94850B6091A3061D
:1032D00070E090E080E04AE00E9428120E940E1107
:1032E00000919B0610919C0680919D068823A1F079
:1032F00084E00E94CE03892B79F410929D06809180
:103300009A060E94101280919E0680939A0681115F
:103310000E94DF110FEF1FEF809199068F5F80935E
:10332000990662E070E080E090E00E94E7043801D6
:10333000E6CD80E00E94EF1180939E061092A506D4
:103340001092A40681E090919E06911101C080E048
:1033500080939D0666246A94762C14CF81E0A9CED2
:10336000982FB4CE85E196E00E94850B4ECF8AEF70
:1033700095E094CF8F929F92AF92BF92CF92DF92BF
:10338000EF92FF92CF93DF93EC01688179818A817C
:103390009B81611571058105910521F464E279ED48
:1033A0008BE597E02DE133EF41E050E00E945E1A9B
:1033B00049015A019B01AC01A7EAB1E40E947D1AC0
:1033C0006B017C01ACEEB4EFA50194010E948B1A55
:1033D000C60ED71EE81EF91EF7FE06C081E0C81A09
:1033E000D108E10880E8F80AC882D982EA82FB8223
:1033F000C701B6019F77DF91CF91FF90EF90DF90EB
:10340000CF90BF90AF909F908F9008958F929F9292
:10341000AF92BF92CF92DF92EF92FF92609105053B
:103420007091060580910705909108056115710559
:103430008105910521F464E279ED8BE597E02DE1BA
:1034400033EF41E050E00E945E1A49015A019B01AE
:10345000AC01A7EAB1E40E947D1A6B017C01ACEEDD
:10346000B4EFA50194010E948B1AC60ED71EE81E68
:10347000F91EF7FE06C081E0C81AD108E10880E80D
:10348000F80AC0920505D0920605E0920705F09271
:103490000805C701B6019F77FF90EF90DF90CF90AE
:1034A000BF90AF909F908F900895609305057093A3
:1034B000060580930705909308050895052E97FB50
:1034C0001EF400940E94751A57FD07D00E94901AAE
:1034D00007FC03D04EF40C94751A50954095309526
:1034E00021953F4F4F4F5F4F089590958095709570
:1034F00061957F4F8F4F9F4F08950E94B21AA59FED
:10350000900DB49F900DA49F800D911D11240895DE
:10351000B7FF0C947D1A0E947D1A821B930B0895AD
:10352000A1E21A2EAA1BBB1BFD010DC0AA1FBB1FC7
:10353000EE1FFF1FA217B307E407F50720F0A21B39
:10354000B30BE40BF50B661F771F881F991F1A94A6
:1035500069F760957095809590959B01AC01BD01D0
:10356000CF010895A29FB001B39FC001A39F700D2A
:10357000811D1124911DB29F700D811D1124911D7B
:103580000895EE0FFF1F0590F491E02D099481E05E
:0C35900090E0F8940C94CC1AF894FFCF53
:10359C0001190519050000000000000000000000E2
:1035AC00000000000000000000000000000000000F
:1035BC0000000000000000000000000000000000FF
:1035CC0000000000000000000000000000000000EF
:1035DC00000000008080800000000000000000005F
:1035EC000000000000008080C0C00000000000004F
:1035FC0000000000000000000000000000000000BF
:10360C0000000000000000000000000000000000AE
:10361C00000000000000000000000000000000009E
:10362C0000000000000000000080C0E0F0F8FCF892
:10363C00E00000000000000000000000000000009E
:10364C0000008080808080008080000000008080EE
:10365C0080808000FFFFFF000000008080808000E1
:10366C00008080000080FFFF8080008080008080D0
:10367C0080800080800000000000808000008C8E24
:10368C0084000080F8F8F8800000000000000000C2
:10369C000000000000F0F0F0F0F0F0F0F0F0F0F0CE
:1036AC00F0E0E0C08000E0FCFEFFFFFF7FFFFFFFCB
:1036BC00FFFF000000000000000000000000000000
:1036CC00FEFFC70101010183FFFF00007CFEC70163
:1036DC0001010183FFFFFF0038FEC7830101018355
:1036EC00C7FFFF000001FFFF010100FFFF07010101
:1036FC000100007FFF80000000FFFF7F0000FFFF44
:10370C00FF000001FFFFFF010000000000000000AF
:10371C000000000000030F3F7F7FFFFFFFFFFFFF54
:10372C00FFE7C7C78F8F9FBFFFFFC3C0F0FFFFFF2F
:10373C00FFFFFCFCFCFCFCFCFCFCF8F8F0F0E0C02F
:10374C000001030303030301030300000000010352
:10375C000303030101030100000001030303030140
:10376C00010303000000030300000003030000003A
:10377C000000000001030303030301000000010328
:10378C000100000003030100000000000000000025
:10379C00000000000000000080C0E0F0F9FFFFFF17
:1037AC00FFFF3F1F0F87C7F7FFFF1F1F3DFCF8F8F8
:1037BC00F8F87C7DFFFFFFFFFFFFFFFF7F3F0F0748
:1037CC00003030000000000000000000000000008D
:1037DC00000000000000000000FEFEFC00000000E5
:1037EC0000000000000000000000000000000000CD
:1037FC000000E0C0000000000000000000000030ED
:10380C00300000000000000000000000000000007C
:10381C00000000000000C0FEFFFFFFFFFFFFFFFFE6
:10382C00FF7F7F3F1F0F071F7FFFFFF8F8FFFFFF92
:10383C00FFFFFEF8E00000000100000000000000A7
:10384C0000FEFE000000FCFEFC0C06060EFCF80060
:10385C0000F0F81C0E0606060CFFFFFF0000FEFE33
:10386C0000000000FCFEFC00183C7E66E6CE8400E6
:10387C000006FFFF0606FCFEFC0C0606060000FE1A
:10388C00FE0000C0F8FC4E4646464E7C7840183C84
:10389C0076E6CECC800000000000000000000000A6
:1038AC0000000000000000000001070F1F1F3F3F39
:1038BC003F3F1F0F0300000000000000000000004D
:1038CC00000F0F0000000F0F0F000000000F0F0083
:1038DC000003070E0C18180C060F0F0F0000010F39
:1038EC000E0C180C0F070100040E0C180C0F07001F
:1038FC0000000F0F00000F0F0F0000000000000F62
:10390C000F00000007070C0C181C0C060600040E18
:10391C000C180C0F07000000000000000000000055
:10392C00000000000000000000000000000000008B
:10393C00000000000000000000000000000000007B
:10394C00000000000000000000000000000000006B
:10395C00000000000000000000000000000000005B
:10396C00000000000000000000000000000000004B
:10397C00000000000000000000000000000000003B
:10398C00000000000000000000000000000000002B
:10399C00000000000001000000000103070F1F3FA2
:1039AC007F0080C0E0F0F8FCFE05060708090A035A
:1039BC0002010005040E0F010002000400080010B3
:1039CC0000200040008000000100024E6F6E650078
:1039DC0000000000000000000000000000000000DB
:1039EC0000496E7075742331000000000000000067
:1039FC0000000000000000496E7075742332000056
:103A0C0000000000000000000000000000496E7083
:103A1C00757423330000000000000000000000005B
:103A2C00000000496E707574233400000000000023
:103A3C00000000000000000000496E707574233512
:103A4C000000000000000000000000000000004921
:103A5C006E7075742336000000000000000000003A
:103A6C000000000000000000008B105E10DC1175DF
:103A7C000357104410351000000000B30A7803DC23
:103A8C0011E70ED4077503730D4B0D670D5B0D3AE3
:103A9C000E7503790878081A057706940C770CFFD5
:063AAC000BA00B0D0A0047
:00000001FF
